{
  "contracts/VotingBlock.sol": {
    "VBTest": {
      "abi": [
        {
          "anonymous": false,
          "inputs": [
            {
              "indexed": true,
              "internalType": "uint256",
              "name": "sessionId",
              "type": "uint256"
            },
            {
              "indexed": false,
              "internalType": "uint256[]",
              "name": "tally",
              "type": "uint256[]"
            }
          ],
          "name": "ResultsCalculated",
          "type": "event"
        },
        {
          "anonymous": false,
          "inputs": [
            {
              "indexed": true,
              "internalType": "uint256",
              "name": "sessionId",
              "type": "uint256"
            },
            {
              "indexed": true,
              "internalType": "address",
              "name": "voter",
              "type": "address"
            },
            {
              "indexed": true,
              "internalType": "uint256",
              "name": "candidateIndex",
              "type": "uint256"
            }
          ],
          "name": "VoteCast",
          "type": "event"
        },
        {
          "anonymous": false,
          "inputs": [
            {
              "indexed": true,
              "internalType": "uint256",
              "name": "sessionId",
              "type": "uint256"
            },
            {
              "indexed": false,
              "internalType": "string",
              "name": "title",
              "type": "string"
            },
            {
              "indexed": false,
              "internalType": "string[]",
              "name": "candidates",
              "type": "string[]"
            },
            {
              "indexed": false,
              "internalType": "uint256",
              "name": "startTimestamp",
              "type": "uint256"
            },
            {
              "indexed": false,
              "internalType": "uint256",
              "name": "endTimestamp",
              "type": "uint256"
            }
          ],
          "name": "VotingSessionCreated",
          "type": "event"
        },
        {
          "inputs": [
            {
              "internalType": "uint256",
              "name": "_sessionId",
              "type": "uint256"
            }
          ],
          "name": "calculateResults",
          "outputs": [],
          "stateMutability": "nonpayable",
          "type": "function"
        },
        {
          "inputs": [
            {
              "internalType": "string",
              "name": "_title",
              "type": "string"
            },
            {
              "internalType": "string[]",
              "name": "_candidates",
              "type": "string[]"
            },
            {
              "internalType": "uint256",
              "name": "_durationInSeconds",
              "type": "uint256"
            }
          ],
          "name": "createVotingSession",
          "outputs": [
            {
              "internalType": "uint256",
              "name": "sessionId",
              "type": "uint256"
            }
          ],
          "stateMutability": "nonpayable",
          "type": "function"
        },
        {
          "inputs": [
            {
              "internalType": "uint256",
              "name": "_sessionId",
              "type": "uint256"
            }
          ],
          "name": "getSessionInfo",
          "outputs": [
            {
              "internalType": "string",
              "name": "title",
              "type": "string"
            },
            {
              "internalType": "string[]",
              "name": "candidates",
              "type": "string[]"
            },
            {
              "internalType": "bool",
              "name": "isActive",
              "type": "bool"
            },
            {
              "internalType": "bool",
              "name": "resultsCalculated",
              "type": "bool"
            },
            {
              "internalType": "uint256",
              "name": "startTimestamp",
              "type": "uint256"
            },
            {
              "internalType": "uint256",
              "name": "endTimestamp",
              "type": "uint256"
            }
          ],
          "stateMutability": "view",
          "type": "function"
        },
        {
          "inputs": [
            {
              "internalType": "uint256",
              "name": "_sessionId",
              "type": "uint256"
            }
          ],
          "name": "getTally",
          "outputs": [
            {
              "internalType": "uint256[]",
              "name": "tally",
              "type": "uint256[]"
            }
          ],
          "stateMutability": "view",
          "type": "function"
        },
        {
          "inputs": [
            {
              "internalType": "uint256",
              "name": "_sessionId",
              "type": "uint256"
            }
          ],
          "name": "getWinners",
          "outputs": [
            {
              "internalType": "string[]",
              "name": "winners",
              "type": "string[]"
            }
          ],
          "stateMutability": "view",
          "type": "function"
        },
        {
          "inputs": [
            {
              "internalType": "uint256",
              "name": "_sessionId",
              "type": "uint256"
            },
            {
              "internalType": "address",
              "name": "_voter",
              "type": "address"
            }
          ],
          "name": "hasVoted",
          "outputs": [
            {
              "internalType": "bool",
              "name": "",
              "type": "bool"
            }
          ],
          "stateMutability": "view",
          "type": "function"
        },
        {
          "inputs": [
            {
              "internalType": "uint256",
              "name": "_sessionId",
              "type": "uint256"
            },
            {
              "internalType": "uint256",
              "name": "_candidateIndex",
              "type": "uint256"
            }
          ],
          "name": "vote",
          "outputs": [],
          "stateMutability": "nonpayable",
          "type": "function"
        },
        {
          "inputs": [],
          "name": "votingSessionCount",
          "outputs": [
            {
              "internalType": "uint256",
              "name": "",
              "type": "uint256"
            }
          ],
          "stateMutability": "view",
          "type": "function"
        },
        {
          "inputs": [
            {
              "internalType": "uint256",
              "name": "",
              "type": "uint256"
            }
          ],
          "name": "votingSessions",
          "outputs": [
            {
              "internalType": "string",
              "name": "title",
              "type": "string"
            },
            {
              "internalType": "bool",
              "name": "isActive",
              "type": "bool"
            },
            {
              "internalType": "uint256",
              "name": "startTimestamp",
              "type": "uint256"
            },
            {
              "internalType": "uint256",
              "name": "endTimestamp",
              "type": "uint256"
            },
            {
              "internalType": "bool",
              "name": "resultsCalculated",
              "type": "bool"
            }
          ],
          "stateMutability": "view",
          "type": "function"
        }
      ],
      "evm": {
        "bytecode": {
          "linkReferences": {},
          "object": "6080604052348015600f57600080fd5b506122388061001f6000396000f3fe608060405234801561001057600080fd5b50600436106100935760003560e01c80636b1426a4116100665780636b1426a4146101485780639e10acf014610178578063b384abef146101ad578063b6c5947e146101c9578063eb0772c9146101e757610093565b80631186eb7c146100985780633e5c08b2146100cc57806343859632146100fc5780636458c9ce1461012c575b600080fd5b6100b260048036038101906100ad9190611051565b610217565b6040516100c3959493929190611138565b60405180910390f35b6100e660048036038101906100e191906113ad565b6102ef565b6040516100f39190611438565b60405180910390f35b610116600480360381019061011191906114b1565b610587565b60405161012391906114f1565b60405180910390f35b61014660048036038101906101419190611051565b6105f1565b005b610162600480360381019061015d9190611051565b6107ad565b60405161016f9190611618565b60405180910390f35b610192600480360381019061018d9190611051565b610a3b565b6040516101a49695949392919061163a565b60405180910390f35b6101c760048036038101906101c291906116a9565b610c05565b005b6101d1610e67565b6040516101de9190611438565b60405180910390f35b61020160048036038101906101fc9190611051565b610e6d565b60405161020e91906117a7565b60405180910390f35b600060205280600052604060002060009150905080600001805461023a906117f8565b80601f0160208091040260200160405190810160405280929190818152602001828054610266906117f8565b80156102b35780601f10610288576101008083540402835291602001916102b3565b820191906000526020600020905b81548152906001019060200180831161029657829003601f168201915b5050505050908060020160009054906101000a900460ff16908060030154908060040154908060050160009054906101000a900460ff16905085565b60006001835111610335576040517f08c379a000000000000000000000000000000000000000000000000000000000815260040161032c90611875565b60405180910390fd5b60008211610378576040517f08c379a000000000000000000000000000000000000000000000000000000000815260040161036f90611907565b60405180910390fd5b60005b835181101561043e5760006001826103939190611956565b90505b8451811015610430578481815181106103b2576103b161198a565b5b6020026020010151805190602001208583815181106103d4576103d361198a565b5b60200260200101518051906020012003610423576040517f08c379a000000000000000000000000000000000000000000000000000000000815260040161041a90611a05565b60405180910390fd5b8080600101915050610396565b50808060010191505061037b565b5060015490506001600081548092919061045790611a25565b919050555060008060008381526020019081526020016000209050848160000190816104839190611c19565b508381600101908051906020019061049c929190610ee0565b5060018160020160006101000a81548160ff02191690831515021790555042816003018190555082426104cf9190611956565b8160040181905550835167ffffffffffffffff8111156104f2576104f161119c565b5b6040519080825280602002602001820160405280156105205781602001602082028036833780820191505090505b50816006019080519060200190610538929190610f39565b50817f8c04667f69bbb5ebfd8bef90c600643f394c258acfca4a58fb8b466ba2656ef48686846003015485600401546040516105779493929190611ceb565b60405180910390a2509392505050565b600080600084815260200190815260200160002060070160008373ffffffffffffffffffffffffffffffffffffffff1673ffffffffffffffffffffffffffffffffffffffff16815260200190815260200160002060009054906101000a900460ff16905092915050565b6001548110610635576040517f08c379a000000000000000000000000000000000000000000000000000000000815260040161062c90611d8a565b60405180910390fd5b600080600083815260200190815260200160002090508060020160009054906101000a900460ff1661069c576040517f08c379a000000000000000000000000000000000000000000000000000000000815260040161069390611df6565b60405180910390fd5b806004015442116106e2576040517f08c379a00000000000000000000000000000000000000000000000000000000081526004016106d990611e62565b60405180910390fd5b8060050160009054906101000a900460ff1615610734576040517f08c379a000000000000000000000000000000000000000000000000000000000815260040161072b90611ece565b60405180910390fd5b60018160050160006101000a81548160ff02191690831515021790555060008160020160006101000a81548160ff021916908315150217905550817ff87d7a2faf29c94988a5ddb321beced1fc595a1016a5c11ca097fcda9cd83e70826006016040516107a19190611fc4565b60405180910390a25050565b6060600080600084815260200190815260200160002090508060050160009054906101000a900460ff16610816576040517f08c379a000000000000000000000000000000000000000000000000000000000815260040161080d90612032565b60405180910390fd5b60008060005b83600601805490508110156108c357828460060182815481106108425761084161198a565b5b9060005260206000200154111561087f578360060181815481106108695761086861198a565b5b90600052602060002001549250600191506108b6565b828460060182815481106108965761089561198a565b5b9060005260206000200154036108b55781806108b190611a25565b9250505b5b808060010191505061081c565b508067ffffffffffffffff8111156108de576108dd61119c565b5b60405190808252806020026020018201604052801561091157816020015b60608152602001906001900390816108fc5790505b5093506000805b8460060180549050811015610a31578385600601828154811061093e5761093d61198a565b5b906000526020600020015403610a24578460010181815481106109645761096361198a565b5b906000526020600020018054610979906117f8565b80601f01602080910402602001604051908101604052809291908181526020018280546109a5906117f8565b80156109f25780601f106109c7576101008083540402835291602001916109f2565b820191906000526020600020905b8154815290600101906020018083116109d557829003601f168201915b5050505050868381518110610a0a57610a0961198a565b5b60200260200101819052508180610a2090611a25565b9250505b8080600101915050610918565b5050505050919050565b6060806000806000806000806000898152602001908152602001600020905080600001816001018260020160009054906101000a900460ff168360050160009054906101000a900460ff1684600301548560040154858054610a9c906117f8565b80601f0160208091040260200160405190810160405280929190818152602001828054610ac8906117f8565b8015610b155780601f10610aea57610100808354040283529160200191610b15565b820191906000526020600020905b815481529060010190602001808311610af857829003601f168201915b5050505050955084805480602002602001604051908101604052809291908181526020016000905b82821015610be9578382906000526020600020018054610b5c906117f8565b80601f0160208091040260200160405190810160405280929190818152602001828054610b88906117f8565b8015610bd55780601f10610baa57610100808354040283529160200191610bd5565b820191906000526020600020905b815481529060010190602001808311610bb857829003601f168201915b505050505081526020019060010190610b3d565b5050505094509650965096509650965096505091939550919395565b600080600084815260200190815260200160002090508060020160009054906101000a900460ff16610c6c576040517f08c379a0000000000000000000000000000000000000000000000000000000008152600401610c639061209e565b60405180910390fd5b8060040154421115610cb3576040517f08c379a0000000000000000000000000000000000000000000000000000000008152600401610caa9061210a565b60405180910390fd5b8060070160003373ffffffffffffffffffffffffffffffffffffffff1673ffffffffffffffffffffffffffffffffffffffff16815260200190815260200160002060009054906101000a900460ff1615610d42576040517f08c379a0000000000000000000000000000000000000000000000000000000008152600401610d3990612176565b60405180910390fd5b80600101805490508210610d8b576040517f08c379a0000000000000000000000000000000000000000000000000000000008152600401610d82906121e2565b60405180910390fd5b60018160070160003373ffffffffffffffffffffffffffffffffffffffff1673ffffffffffffffffffffffffffffffffffffffff16815260200190815260200160002060006101000a81548160ff0219169083151502179055506001816006018381548110610dfd57610dfc61198a565b5b906000526020600020016000828254610e169190611956565b92505081905550813373ffffffffffffffffffffffffffffffffffffffff16847f2acce567deca3aabf56327adbb4524bd5318936eaefa69e3a5208ffda0cfec0960405160405180910390a4505050565b60015481565b60606000806000848152602001908152602001600020905080600601805480602002602001604051908101604052809291908181526020018280548015610ed357602002820191906000526020600020905b815481526020019060010190808311610ebf575b5050505050915050919050565b828054828255906000526020600020908101928215610f28579160200282015b82811115610f27578251829081610f179190611c19565b5091602001919060010190610f00565b5b509050610f359190610f86565b5090565b828054828255906000526020600020908101928215610f75579160200282015b82811115610f74578251825591602001919060010190610f59565b5b509050610f829190610faa565b5090565b5b80821115610fa65760008181610f9d9190610fc7565b50600101610f87565b5090565b5b80821115610fc3576000816000905550600101610fab565b5090565b508054610fd3906117f8565b6000825580601f10610fe55750611004565b601f0160209004906000526020600020908101906110039190610faa565b5b50565b6000604051905090565b600080fd5b600080fd5b6000819050919050565b61102e8161101b565b811461103957600080fd5b50565b60008135905061104b81611025565b92915050565b60006020828403121561106757611066611011565b5b60006110758482850161103c565b91505092915050565b600081519050919050565b600082825260208201905092915050565b60005b838110156110b857808201518184015260208101905061109d565b60008484015250505050565b6000601f19601f8301169050919050565b60006110e08261107e565b6110ea8185611089565b93506110fa81856020860161109a565b611103816110c4565b840191505092915050565b60008115159050919050565b6111238161110e565b82525050565b6111328161101b565b82525050565b600060a082019050818103600083015261115281886110d5565b9050611161602083018761111a565b61116e6040830186611129565b61117b6060830185611129565b611188608083018461111a565b9695505050505050565b600080fd5b600080fd5b7f4e487b7100000000000000000000000000000000000000000000000000000000600052604160045260246000fd5b6111d4826110c4565b810181811067ffffffffffffffff821117156111f3576111f261119c565b5b80604052505050565b6000611206611007565b905061121282826111cb565b919050565b600067ffffffffffffffff8211156112325761123161119c565b5b61123b826110c4565b9050602081019050919050565b82818337600083830152505050565b600061126a61126584611217565b6111fc565b90508281526020810184848401111561128657611285611197565b5b611291848285611248565b509392505050565b600082601f8301126112ae576112ad611192565b5b81356112be848260208601611257565b91505092915050565b600067ffffffffffffffff8211156112e2576112e161119c565b5b602082029050602081019050919050565b600080fd5b600061130b611306846112c7565b6111fc565b9050808382526020820190506020840283018581111561132e5761132d6112f3565b5b835b8181101561137557803567ffffffffffffffff81111561135357611352611192565b5b8086016113608982611299565b85526020850194505050602081019050611330565b5050509392505050565b600082601f83011261139457611393611192565b5b81356113a48482602086016112f8565b91505092915050565b6000806000606084860312156113c6576113c5611011565b5b600084013567ffffffffffffffff8111156113e4576113e3611016565b5b6113f086828701611299565b935050602084013567ffffffffffffffff81111561141157611410611016565b5b61141d8682870161137f565b925050604061142e8682870161103c565b9150509250925092565b600060208201905061144d6000830184611129565b92915050565b600073ffffffffffffffffffffffffffffffffffffffff82169050919050565b600061147e82611453565b9050919050565b61148e81611473565b811461149957600080fd5b50565b6000813590506114ab81611485565b92915050565b600080604083850312156114c8576114c7611011565b5b60006114d68582860161103c565b92505060206114e78582860161149c565b9150509250929050565b6000602082019050611506600083018461111a565b92915050565b600081519050919050565b600082825260208201905092915050565b6000819050602082019050919050565b600082825260208201905092915050565b60006115548261107e565b61155e8185611538565b935061156e81856020860161109a565b611577816110c4565b840191505092915050565b600061158e8383611549565b905092915050565b6000602082019050919050565b60006115ae8261150c565b6115b88185611517565b9350836020820285016115ca85611528565b8060005b8581101561160657848403895281516115e78582611582565b94506115f283611596565b925060208a019950506001810190506115ce565b50829750879550505050505092915050565b6000602082019050818103600083015261163281846115a3565b905092915050565b600060c082019050818103600083015261165481896110d5565b9050818103602083015261166881886115a3565b9050611677604083018761111a565b611684606083018661111a565b6116916080830185611129565b61169e60a0830184611129565b979650505050505050565b600080604083850312156116c0576116bf611011565b5b60006116ce8582860161103c565b92505060206116df8582860161103c565b9150509250929050565b600081519050919050565b600082825260208201905092915050565b6000819050602082019050919050565b61171e8161101b565b82525050565b60006117308383611715565b60208301905092915050565b6000602082019050919050565b6000611754826116e9565b61175e81856116f4565b935061176983611705565b8060005b8381101561179a5781516117818882611724565b975061178c8361173c565b92505060018101905061176d565b5085935050505092915050565b600060208201905081810360008301526117c18184611749565b905092915050565b7f4e487b7100000000000000000000000000000000000000000000000000000000600052602260045260246000fd5b6000600282049050600182168061181057607f821691505b602082108103611823576118226117c9565b5b50919050565b7f4e656564206174206c656173742074776f2063616e646964617465732e000000600082015250565b600061185f601d83611089565b915061186a82611829565b602082019050919050565b6000602082019050818103600083015261188e81611852565b9050919050565b7f4475726174696f6e206d7573742062652067726561746572207468616e207a6560008201527f726f2e0000000000000000000000000000000000000000000000000000000000602082015250565b60006118f1602383611089565b91506118fc82611895565b604082019050919050565b60006020820190508181036000830152611920816118e4565b9050919050565b7f4e487b7100000000000000000000000000000000000000000000000000000000600052601160045260246000fd5b60006119618261101b565b915061196c8361101b565b925082820190508082111561198457611983611927565b5b92915050565b7f4e487b7100000000000000000000000000000000000000000000000000000000600052603260045260246000fd5b7f4475706c69636174652063616e64696461746520666f756e642e000000000000600082015250565b60006119ef601a83611089565b91506119fa826119b9565b602082019050919050565b60006020820190508181036000830152611a1e816119e2565b9050919050565b6000611a308261101b565b91507fffffffffffffffffffffffffffffffffffffffffffffffffffffffffffffffff8203611a6257611a61611927565b5b600182019050919050565b60008190508160005260206000209050919050565b60006020601f8301049050919050565b600082821b905092915050565b600060088302611acf7fffffffffffffffffffffffffffffffffffffffffffffffffffffffffffffffff82611a92565b611ad98683611a92565b95508019841693508086168417925050509392505050565b6000819050919050565b6000611b16611b11611b0c8461101b565b611af1565b61101b565b9050919050565b6000819050919050565b611b3083611afb565b611b44611b3c82611b1d565b848454611a9f565b825550505050565b600090565b611b59611b4c565b611b64818484611b27565b505050565b5b81811015611b8857611b7d600082611b51565b600181019050611b6a565b5050565b601f821115611bcd57611b9e81611a6d565b611ba784611a82565b81016020851015611bb6578190505b611bca611bc285611a82565b830182611b69565b50505b505050565b600082821c905092915050565b6000611bf060001984600802611bd2565b1980831691505092915050565b6000611c098383611bdf565b9150826002028217905092915050565b611c228261107e565b67ffffffffffffffff811115611c3b57611c3a61119c565b5b611c4582546117f8565b611c50828285611b8c565b600060209050601f831160018114611c835760008415611c71578287015190505b611c7b8582611bfd565b865550611ce3565b601f198416611c9186611a6d565b60005b82811015611cb957848901518255600182019150602085019450602081019050611c94565b86831015611cd65784890151611cd2601f891682611bdf565b8355505b6001600288020188555050505b505050505050565b60006080820190508181036000830152611d0581876110d5565b90508181036020830152611d1981866115a3565b9050611d286040830185611129565b611d356060830184611129565b95945050505050565b7f496e76616c69642073657373696f6e2049442e00000000000000000000000000600082015250565b6000611d74601383611089565b9150611d7f82611d3e565b602082019050919050565b60006020820190508181036000830152611da381611d67565b9050919050565b7f53657373696f6e20616c72656164792066696e616c697a65642e000000000000600082015250565b6000611de0601a83611089565b9150611deb82611daa565b602082019050919050565b60006020820190508181036000830152611e0f81611dd3565b9050919050565b7f566f74696e6720706572696f64206973207374696c6c206163746976652e0000600082015250565b6000611e4c601e83611089565b9150611e5782611e16565b602082019050919050565b60006020820190508181036000830152611e7b81611e3f565b9050919050565b7f526573756c747320616c72656164792063616c63756c617465642e0000000000600082015250565b6000611eb8601b83611089565b9150611ec382611e82565b602082019050919050565b60006020820190508181036000830152611ee781611eab565b9050919050565b600081549050919050565b60008190508160005260206000209050919050565b60008160001c9050919050565b6000819050919050565b6000611f38611f3383611f0e565b611f1b565b9050919050565b6000611f4b8254611f25565b9050919050565b6000600182019050919050565b6000611f6a82611eee565b611f7481856116f4565b9350611f7f83611ef9565b8060005b83811015611fb757611f9482611f3f565b611f9e8882611724565b9750611fa983611f52565b925050600181019050611f83565b5085935050505092915050565b60006020820190508181036000830152611fde8184611f5f565b905092915050565b7f526573756c7473206e6f742063616c63756c61746564207965742e0000000000600082015250565b600061201c601b83611089565b915061202782611fe6565b602082019050919050565b6000602082019050818103600083015261204b8161200f565b9050919050565b7f566f74696e672073657373696f6e206973206e6f74206163746976652e000000600082015250565b6000612088601d83611089565b915061209382612052565b602082019050919050565b600060208201905081810360008301526120b78161207b565b9050919050565b7f566f74696e672073657373696f6e2068617320656e6465642e00000000000000600082015250565b60006120f4601983611089565b91506120ff826120be565b602082019050919050565b60006020820190508181036000830152612123816120e7565b9050919050565b7f596f75206861766520616c726561647920766f7465642e000000000000000000600082015250565b6000612160601783611089565b915061216b8261212a565b602082019050919050565b6000602082019050818103600083015261218f81612153565b9050919050565b7f496e76616c69642063616e64696461746520696e6465782e0000000000000000600082015250565b60006121cc601883611089565b91506121d782612196565b602082019050919050565b600060208201905081810360008301526121fb816121bf565b905091905056fea2646970667358221220e72d501358047319fa64df32995777c368182de14ae724b1e8c9aad775df083764736f6c634300081a0033",
          "opcodes": "PUSH1 0x80 PUSH1 0x40 MSTORE CALLVALUE DUP1 ISZERO PUSH1 0xF JUMPI PUSH1 0x0 DUP1 REVERT JUMPDEST POP PUSH2 0x2238 DUP1 PUSH2 0x1F PUSH1 0x0 CODECOPY PUSH1 0x0 RETURN INVALID PUSH1 0x80 PUSH1 0x40 MSTORE CALLVALUE DUP1 ISZERO PUSH2 0x10 JUMPI PUSH1 0x0 DUP1 REVERT JUMPDEST POP PUSH1 0x4 CALLDATASIZE LT PUSH2 0x93 JUMPI PUSH1 0x0 CALLDATALOAD PUSH1 0xE0 SHR DUP1 PUSH4 0x6B1426A4 GT PUSH2 0x66 JUMPI DUP1 PUSH4 0x6B1426A4 EQ PUSH2 0x148 JUMPI DUP1 PUSH4 0x9E10ACF0 EQ PUSH2 0x178 JUMPI DUP1 PUSH4 0xB384ABEF EQ PUSH2 0x1AD JUMPI DUP1 PUSH4 0xB6C5947E EQ PUSH2 0x1C9 JUMPI DUP1 PUSH4 0xEB0772C9 EQ PUSH2 0x1E7 JUMPI PUSH2 0x93 JUMP JUMPDEST DUP1 PUSH4 0x1186EB7C EQ PUSH2 0x98 JUMPI DUP1 PUSH4 0x3E5C08B2 EQ PUSH2 0xCC JUMPI DUP1 PUSH4 0x43859632 EQ PUSH2 0xFC JUMPI DUP1 PUSH4 0x6458C9CE EQ PUSH2 0x12C JUMPI JUMPDEST PUSH1 0x0 DUP1 REVERT JUMPDEST PUSH2 0xB2 PUSH1 0x4 DUP1 CALLDATASIZE SUB DUP2 ADD SWAP1 PUSH2 0xAD SWAP2 SWAP1 PUSH2 0x1051 JUMP JUMPDEST PUSH2 0x217 JUMP JUMPDEST PUSH1 0x40 MLOAD PUSH2 0xC3 SWAP6 SWAP5 SWAP4 SWAP3 SWAP2 SWAP1 PUSH2 0x1138 JUMP JUMPDEST PUSH1 0x40 MLOAD DUP1 SWAP2 SUB SWAP1 RETURN JUMPDEST PUSH2 0xE6 PUSH1 0x4 DUP1 CALLDATASIZE SUB DUP2 ADD SWAP1 PUSH2 0xE1 SWAP2 SWAP1 PUSH2 0x13AD JUMP JUMPDEST PUSH2 0x2EF JUMP JUMPDEST PUSH1 0x40 MLOAD PUSH2 0xF3 SWAP2 SWAP1 PUSH2 0x1438 JUMP JUMPDEST PUSH1 0x40 MLOAD DUP1 SWAP2 SUB SWAP1 RETURN JUMPDEST PUSH2 0x116 PUSH1 0x4 DUP1 CALLDATASIZE SUB DUP2 ADD SWAP1 PUSH2 0x111 SWAP2 SWAP1 PUSH2 0x14B1 JUMP JUMPDEST PUSH2 0x587 JUMP JUMPDEST PUSH1 0x40 MLOAD PUSH2 0x123 SWAP2 SWAP1 PUSH2 0x14F1 JUMP JUMPDEST PUSH1 0x40 MLOAD DUP1 SWAP2 SUB SWAP1 RETURN JUMPDEST PUSH2 0x146 PUSH1 0x4 DUP1 CALLDATASIZE SUB DUP2 ADD SWAP1 PUSH2 0x141 SWAP2 SWAP1 PUSH2 0x1051 JUMP JUMPDEST PUSH2 0x5F1 JUMP JUMPDEST STOP JUMPDEST PUSH2 0x162 PUSH1 0x4 DUP1 CALLDATASIZE SUB DUP2 ADD SWAP1 PUSH2 0x15D SWAP2 SWAP1 PUSH2 0x1051 JUMP JUMPDEST PUSH2 0x7AD JUMP JUMPDEST PUSH1 0x40 MLOAD PUSH2 0x16F SWAP2 SWAP1 PUSH2 0x1618 JUMP JUMPDEST PUSH1 0x40 MLOAD DUP1 SWAP2 SUB SWAP1 RETURN JUMPDEST PUSH2 0x192 PUSH1 0x4 DUP1 CALLDATASIZE SUB DUP2 ADD SWAP1 PUSH2 0x18D SWAP2 SWAP1 PUSH2 0x1051 JUMP JUMPDEST PUSH2 0xA3B JUMP JUMPDEST PUSH1 0x40 MLOAD PUSH2 0x1A4 SWAP7 SWAP6 SWAP5 SWAP4 SWAP3 SWAP2 SWAP1 PUSH2 0x163A JUMP JUMPDEST PUSH1 0x40 MLOAD DUP1 SWAP2 SUB SWAP1 RETURN JUMPDEST PUSH2 0x1C7 PUSH1 0x4 DUP1 CALLDATASIZE SUB DUP2 ADD SWAP1 PUSH2 0x1C2 SWAP2 SWAP1 PUSH2 0x16A9 JUMP JUMPDEST PUSH2 0xC05 JUMP JUMPDEST STOP JUMPDEST PUSH2 0x1D1 PUSH2 0xE67 JUMP JUMPDEST PUSH1 0x40 MLOAD PUSH2 0x1DE SWAP2 SWAP1 PUSH2 0x1438 JUMP JUMPDEST PUSH1 0x40 MLOAD DUP1 SWAP2 SUB SWAP1 RETURN JUMPDEST PUSH2 0x201 PUSH1 0x4 DUP1 CALLDATASIZE SUB DUP2 ADD SWAP1 PUSH2 0x1FC SWAP2 SWAP1 PUSH2 0x1051 JUMP JUMPDEST PUSH2 0xE6D JUMP JUMPDEST PUSH1 0x40 MLOAD PUSH2 0x20E SWAP2 SWAP1 PUSH2 0x17A7 JUMP JUMPDEST PUSH1 0x40 MLOAD DUP1 SWAP2 SUB SWAP1 RETURN JUMPDEST PUSH1 0x0 PUSH1 0x20 MSTORE DUP1 PUSH1 0x0 MSTORE PUSH1 0x40 PUSH1 0x0 KECCAK256 PUSH1 0x0 SWAP2 POP SWAP1 POP DUP1 PUSH1 0x0 ADD DUP1 SLOAD PUSH2 0x23A SWAP1 PUSH2 0x17F8 JUMP JUMPDEST DUP1 PUSH1 0x1F ADD PUSH1 0x20 DUP1 SWAP2 DIV MUL PUSH1 0x20 ADD PUSH1 0x40 MLOAD SWAP1 DUP2 ADD PUSH1 0x40 MSTORE DUP1 SWAP3 SWAP2 SWAP1 DUP2 DUP2 MSTORE PUSH1 0x20 ADD DUP3 DUP1 SLOAD PUSH2 0x266 SWAP1 PUSH2 0x17F8 JUMP JUMPDEST DUP1 ISZERO PUSH2 0x2B3 JUMPI DUP1 PUSH1 0x1F LT PUSH2 0x288 JUMPI PUSH2 0x100 DUP1 DUP4 SLOAD DIV MUL DUP4 MSTORE SWAP2 PUSH1 0x20 ADD SWAP2 PUSH2 0x2B3 JUMP JUMPDEST DUP3 ADD SWAP2 SWAP1 PUSH1 0x0 MSTORE PUSH1 0x20 PUSH1 0x0 KECCAK256 SWAP1 JUMPDEST DUP2 SLOAD DUP2 MSTORE SWAP1 PUSH1 0x1 ADD SWAP1 PUSH1 0x20 ADD DUP1 DUP4 GT PUSH2 0x296 JUMPI DUP3 SWAP1 SUB PUSH1 0x1F AND DUP3 ADD SWAP2 JUMPDEST POP POP POP POP POP SWAP1 DUP1 PUSH1 0x2 ADD PUSH1 0x0 SWAP1 SLOAD SWAP1 PUSH2 0x100 EXP SWAP1 DIV PUSH1 0xFF AND SWAP1 DUP1 PUSH1 0x3 ADD SLOAD SWAP1 DUP1 PUSH1 0x4 ADD SLOAD SWAP1 DUP1 PUSH1 0x5 ADD PUSH1 0x0 SWAP1 SLOAD SWAP1 PUSH2 0x100 EXP SWAP1 DIV PUSH1 0xFF AND SWAP1 POP DUP6 JUMP JUMPDEST PUSH1 0x0 PUSH1 0x1 DUP4 MLOAD GT PUSH2 0x335 JUMPI PUSH1 0x40 MLOAD PUSH32 0x8C379A000000000000000000000000000000000000000000000000000000000 DUP2 MSTORE PUSH1 0x4 ADD PUSH2 0x32C SWAP1 PUSH2 0x1875 JUMP JUMPDEST PUSH1 0x40 MLOAD DUP1 SWAP2 SUB SWAP1 REVERT JUMPDEST PUSH1 0x0 DUP3 GT PUSH2 0x378 JUMPI PUSH1 0x40 MLOAD PUSH32 0x8C379A000000000000000000000000000000000000000000000000000000000 DUP2 MSTORE PUSH1 0x4 ADD PUSH2 0x36F SWAP1 PUSH2 0x1907 JUMP JUMPDEST PUSH1 0x40 MLOAD DUP1 SWAP2 SUB SWAP1 REVERT JUMPDEST PUSH1 0x0 JUMPDEST DUP4 MLOAD DUP2 LT ISZERO PUSH2 0x43E JUMPI PUSH1 0x0 PUSH1 0x1 DUP3 PUSH2 0x393 SWAP2 SWAP1 PUSH2 0x1956 JUMP JUMPDEST SWAP1 POP JUMPDEST DUP5 MLOAD DUP2 LT ISZERO PUSH2 0x430 JUMPI DUP5 DUP2 DUP2 MLOAD DUP2 LT PUSH2 0x3B2 JUMPI PUSH2 0x3B1 PUSH2 0x198A JUMP JUMPDEST JUMPDEST PUSH1 0x20 MUL PUSH1 0x20 ADD ADD MLOAD DUP1 MLOAD SWAP1 PUSH1 0x20 ADD KECCAK256 DUP6 DUP4 DUP2 MLOAD DUP2 LT PUSH2 0x3D4 JUMPI PUSH2 0x3D3 PUSH2 0x198A JUMP JUMPDEST JUMPDEST PUSH1 0x20 MUL PUSH1 0x20 ADD ADD MLOAD DUP1 MLOAD SWAP1 PUSH1 0x20 ADD KECCAK256 SUB PUSH2 0x423 JUMPI PUSH1 0x40 MLOAD PUSH32 0x8C379A000000000000000000000000000000000000000000000000000000000 DUP2 MSTORE PUSH1 0x4 ADD PUSH2 0x41A SWAP1 PUSH2 0x1A05 JUMP JUMPDEST PUSH1 0x40 MLOAD DUP1 SWAP2 SUB SWAP1 REVERT JUMPDEST DUP1 DUP1 PUSH1 0x1 ADD SWAP2 POP POP PUSH2 0x396 JUMP JUMPDEST POP DUP1 DUP1 PUSH1 0x1 ADD SWAP2 POP POP PUSH2 0x37B JUMP JUMPDEST POP PUSH1 0x1 SLOAD SWAP1 POP PUSH1 0x1 PUSH1 0x0 DUP2 SLOAD DUP1 SWAP3 SWAP2 SWAP1 PUSH2 0x457 SWAP1 PUSH2 0x1A25 JUMP JUMPDEST SWAP2 SWAP1 POP SSTORE POP PUSH1 0x0 DUP1 PUSH1 0x0 DUP4 DUP2 MSTORE PUSH1 0x20 ADD SWAP1 DUP2 MSTORE PUSH1 0x20 ADD PUSH1 0x0 KECCAK256 SWAP1 POP DUP5 DUP2 PUSH1 0x0 ADD SWAP1 DUP2 PUSH2 0x483 SWAP2 SWAP1 PUSH2 0x1C19 JUMP JUMPDEST POP DUP4 DUP2 PUSH1 0x1 ADD SWAP1 DUP1 MLOAD SWAP1 PUSH1 0x20 ADD SWAP1 PUSH2 0x49C SWAP3 SWAP2 SWAP1 PUSH2 0xEE0 JUMP JUMPDEST POP PUSH1 0x1 DUP2 PUSH1 0x2 ADD PUSH1 0x0 PUSH2 0x100 EXP DUP2 SLOAD DUP2 PUSH1 0xFF MUL NOT AND SWAP1 DUP4 ISZERO ISZERO MUL OR SWAP1 SSTORE POP TIMESTAMP DUP2 PUSH1 0x3 ADD DUP2 SWAP1 SSTORE POP DUP3 TIMESTAMP PUSH2 0x4CF SWAP2 SWAP1 PUSH2 0x1956 JUMP JUMPDEST DUP2 PUSH1 0x4 ADD DUP2 SWAP1 SSTORE POP DUP4 MLOAD PUSH8 0xFFFFFFFFFFFFFFFF DUP2 GT ISZERO PUSH2 0x4F2 JUMPI PUSH2 0x4F1 PUSH2 0x119C JUMP JUMPDEST JUMPDEST PUSH1 0x40 MLOAD SWAP1 DUP1 DUP3 MSTORE DUP1 PUSH1 0x20 MUL PUSH1 0x20 ADD DUP3 ADD PUSH1 0x40 MSTORE DUP1 ISZERO PUSH2 0x520 JUMPI DUP2 PUSH1 0x20 ADD PUSH1 0x20 DUP3 MUL DUP1 CALLDATASIZE DUP4 CALLDATACOPY DUP1 DUP3 ADD SWAP2 POP POP SWAP1 POP JUMPDEST POP DUP2 PUSH1 0x6 ADD SWAP1 DUP1 MLOAD SWAP1 PUSH1 0x20 ADD SWAP1 PUSH2 0x538 SWAP3 SWAP2 SWAP1 PUSH2 0xF39 JUMP JUMPDEST POP DUP2 PUSH32 0x8C04667F69BBB5EBFD8BEF90C600643F394C258ACFCA4A58FB8B466BA2656EF4 DUP7 DUP7 DUP5 PUSH1 0x3 ADD SLOAD DUP6 PUSH1 0x4 ADD SLOAD PUSH1 0x40 MLOAD PUSH2 0x577 SWAP5 SWAP4 SWAP3 SWAP2 SWAP1 PUSH2 0x1CEB JUMP JUMPDEST PUSH1 0x40 MLOAD DUP1 SWAP2 SUB SWAP1 LOG2 POP SWAP4 SWAP3 POP POP POP JUMP JUMPDEST PUSH1 0x0 DUP1 PUSH1 0x0 DUP5 DUP2 MSTORE PUSH1 0x20 ADD SWAP1 DUP2 MSTORE PUSH1 0x20 ADD PUSH1 0x0 KECCAK256 PUSH1 0x7 ADD PUSH1 0x0 DUP4 PUSH20 0xFFFFFFFFFFFFFFFFFFFFFFFFFFFFFFFFFFFFFFFF AND PUSH20 0xFFFFFFFFFFFFFFFFFFFFFFFFFFFFFFFFFFFFFFFF AND DUP2 MSTORE PUSH1 0x20 ADD SWAP1 DUP2 MSTORE PUSH1 0x20 ADD PUSH1 0x0 KECCAK256 PUSH1 0x0 SWAP1 SLOAD SWAP1 PUSH2 0x100 EXP SWAP1 DIV PUSH1 0xFF AND SWAP1 POP SWAP3 SWAP2 POP POP JUMP JUMPDEST PUSH1 0x1 SLOAD DUP2 LT PUSH2 0x635 JUMPI PUSH1 0x40 MLOAD PUSH32 0x8C379A000000000000000000000000000000000000000000000000000000000 DUP2 MSTORE PUSH1 0x4 ADD PUSH2 0x62C SWAP1 PUSH2 0x1D8A JUMP JUMPDEST PUSH1 0x40 MLOAD DUP1 SWAP2 SUB SWAP1 REVERT JUMPDEST PUSH1 0x0 DUP1 PUSH1 0x0 DUP4 DUP2 MSTORE PUSH1 0x20 ADD SWAP1 DUP2 MSTORE PUSH1 0x20 ADD PUSH1 0x0 KECCAK256 SWAP1 POP DUP1 PUSH1 0x2 ADD PUSH1 0x0 SWAP1 SLOAD SWAP1 PUSH2 0x100 EXP SWAP1 DIV PUSH1 0xFF AND PUSH2 0x69C JUMPI PUSH1 0x40 MLOAD PUSH32 0x8C379A000000000000000000000000000000000000000000000000000000000 DUP2 MSTORE PUSH1 0x4 ADD PUSH2 0x693 SWAP1 PUSH2 0x1DF6 JUMP JUMPDEST PUSH1 0x40 MLOAD DUP1 SWAP2 SUB SWAP1 REVERT JUMPDEST DUP1 PUSH1 0x4 ADD SLOAD TIMESTAMP GT PUSH2 0x6E2 JUMPI PUSH1 0x40 MLOAD PUSH32 0x8C379A000000000000000000000000000000000000000000000000000000000 DUP2 MSTORE PUSH1 0x4 ADD PUSH2 0x6D9 SWAP1 PUSH2 0x1E62 JUMP JUMPDEST PUSH1 0x40 MLOAD DUP1 SWAP2 SUB SWAP1 REVERT JUMPDEST DUP1 PUSH1 0x5 ADD PUSH1 0x0 SWAP1 SLOAD SWAP1 PUSH2 0x100 EXP SWAP1 DIV PUSH1 0xFF AND ISZERO PUSH2 0x734 JUMPI PUSH1 0x40 MLOAD PUSH32 0x8C379A000000000000000000000000000000000000000000000000000000000 DUP2 MSTORE PUSH1 0x4 ADD PUSH2 0x72B SWAP1 PUSH2 0x1ECE JUMP JUMPDEST PUSH1 0x40 MLOAD DUP1 SWAP2 SUB SWAP1 REVERT JUMPDEST PUSH1 0x1 DUP2 PUSH1 0x5 ADD PUSH1 0x0 PUSH2 0x100 EXP DUP2 SLOAD DUP2 PUSH1 0xFF MUL NOT AND SWAP1 DUP4 ISZERO ISZERO MUL OR SWAP1 SSTORE POP PUSH1 0x0 DUP2 PUSH1 0x2 ADD PUSH1 0x0 PUSH2 0x100 EXP DUP2 SLOAD DUP2 PUSH1 0xFF MUL NOT AND SWAP1 DUP4 ISZERO ISZERO MUL OR SWAP1 SSTORE POP DUP2 PUSH32 0xF87D7A2FAF29C94988A5DDB321BECED1FC595A1016A5C11CA097FCDA9CD83E70 DUP3 PUSH1 0x6 ADD PUSH1 0x40 MLOAD PUSH2 0x7A1 SWAP2 SWAP1 PUSH2 0x1FC4 JUMP JUMPDEST PUSH1 0x40 MLOAD DUP1 SWAP2 SUB SWAP1 LOG2 POP POP JUMP JUMPDEST PUSH1 0x60 PUSH1 0x0 DUP1 PUSH1 0x0 DUP5 DUP2 MSTORE PUSH1 0x20 ADD SWAP1 DUP2 MSTORE PUSH1 0x20 ADD PUSH1 0x0 KECCAK256 SWAP1 POP DUP1 PUSH1 0x5 ADD PUSH1 0x0 SWAP1 SLOAD SWAP1 PUSH2 0x100 EXP SWAP1 DIV PUSH1 0xFF AND PUSH2 0x816 JUMPI PUSH1 0x40 MLOAD PUSH32 0x8C379A000000000000000000000000000000000000000000000000000000000 DUP2 MSTORE PUSH1 0x4 ADD PUSH2 0x80D SWAP1 PUSH2 0x2032 JUMP JUMPDEST PUSH1 0x40 MLOAD DUP1 SWAP2 SUB SWAP1 REVERT JUMPDEST PUSH1 0x0 DUP1 PUSH1 0x0 JUMPDEST DUP4 PUSH1 0x6 ADD DUP1 SLOAD SWAP1 POP DUP2 LT ISZERO PUSH2 0x8C3 JUMPI DUP3 DUP5 PUSH1 0x6 ADD DUP3 DUP2 SLOAD DUP2 LT PUSH2 0x842 JUMPI PUSH2 0x841 PUSH2 0x198A JUMP JUMPDEST JUMPDEST SWAP1 PUSH1 0x0 MSTORE PUSH1 0x20 PUSH1 0x0 KECCAK256 ADD SLOAD GT ISZERO PUSH2 0x87F JUMPI DUP4 PUSH1 0x6 ADD DUP2 DUP2 SLOAD DUP2 LT PUSH2 0x869 JUMPI PUSH2 0x868 PUSH2 0x198A JUMP JUMPDEST JUMPDEST SWAP1 PUSH1 0x0 MSTORE PUSH1 0x20 PUSH1 0x0 KECCAK256 ADD SLOAD SWAP3 POP PUSH1 0x1 SWAP2 POP PUSH2 0x8B6 JUMP JUMPDEST DUP3 DUP5 PUSH1 0x6 ADD DUP3 DUP2 SLOAD DUP2 LT PUSH2 0x896 JUMPI PUSH2 0x895 PUSH2 0x198A JUMP JUMPDEST JUMPDEST SWAP1 PUSH1 0x0 MSTORE PUSH1 0x20 PUSH1 0x0 KECCAK256 ADD SLOAD SUB PUSH2 0x8B5 JUMPI DUP2 DUP1 PUSH2 0x8B1 SWAP1 PUSH2 0x1A25 JUMP JUMPDEST SWAP3 POP POP JUMPDEST JUMPDEST DUP1 DUP1 PUSH1 0x1 ADD SWAP2 POP POP PUSH2 0x81C JUMP JUMPDEST POP DUP1 PUSH8 0xFFFFFFFFFFFFFFFF DUP2 GT ISZERO PUSH2 0x8DE JUMPI PUSH2 0x8DD PUSH2 0x119C JUMP JUMPDEST JUMPDEST PUSH1 0x40 MLOAD SWAP1 DUP1 DUP3 MSTORE DUP1 PUSH1 0x20 MUL PUSH1 0x20 ADD DUP3 ADD PUSH1 0x40 MSTORE DUP1 ISZERO PUSH2 0x911 JUMPI DUP2 PUSH1 0x20 ADD JUMPDEST PUSH1 0x60 DUP2 MSTORE PUSH1 0x20 ADD SWAP1 PUSH1 0x1 SWAP1 SUB SWAP1 DUP2 PUSH2 0x8FC JUMPI SWAP1 POP JUMPDEST POP SWAP4 POP PUSH1 0x0 DUP1 JUMPDEST DUP5 PUSH1 0x6 ADD DUP1 SLOAD SWAP1 POP DUP2 LT ISZERO PUSH2 0xA31 JUMPI DUP4 DUP6 PUSH1 0x6 ADD DUP3 DUP2 SLOAD DUP2 LT PUSH2 0x93E JUMPI PUSH2 0x93D PUSH2 0x198A JUMP JUMPDEST JUMPDEST SWAP1 PUSH1 0x0 MSTORE PUSH1 0x20 PUSH1 0x0 KECCAK256 ADD SLOAD SUB PUSH2 0xA24 JUMPI DUP5 PUSH1 0x1 ADD DUP2 DUP2 SLOAD DUP2 LT PUSH2 0x964 JUMPI PUSH2 0x963 PUSH2 0x198A JUMP JUMPDEST JUMPDEST SWAP1 PUSH1 0x0 MSTORE PUSH1 0x20 PUSH1 0x0 KECCAK256 ADD DUP1 SLOAD PUSH2 0x979 SWAP1 PUSH2 0x17F8 JUMP JUMPDEST DUP1 PUSH1 0x1F ADD PUSH1 0x20 DUP1 SWAP2 DIV MUL PUSH1 0x20 ADD PUSH1 0x40 MLOAD SWAP1 DUP2 ADD PUSH1 0x40 MSTORE DUP1 SWAP3 SWAP2 SWAP1 DUP2 DUP2 MSTORE PUSH1 0x20 ADD DUP3 DUP1 SLOAD PUSH2 0x9A5 SWAP1 PUSH2 0x17F8 JUMP JUMPDEST DUP1 ISZERO PUSH2 0x9F2 JUMPI DUP1 PUSH1 0x1F LT PUSH2 0x9C7 JUMPI PUSH2 0x100 DUP1 DUP4 SLOAD DIV MUL DUP4 MSTORE SWAP2 PUSH1 0x20 ADD SWAP2 PUSH2 0x9F2 JUMP JUMPDEST DUP3 ADD SWAP2 SWAP1 PUSH1 0x0 MSTORE PUSH1 0x20 PUSH1 0x0 KECCAK256 SWAP1 JUMPDEST DUP2 SLOAD DUP2 MSTORE SWAP1 PUSH1 0x1 ADD SWAP1 PUSH1 0x20 ADD DUP1 DUP4 GT PUSH2 0x9D5 JUMPI DUP3 SWAP1 SUB PUSH1 0x1F AND DUP3 ADD SWAP2 JUMPDEST POP POP POP POP POP DUP7 DUP4 DUP2 MLOAD DUP2 LT PUSH2 0xA0A JUMPI PUSH2 0xA09 PUSH2 0x198A JUMP JUMPDEST JUMPDEST PUSH1 0x20 MUL PUSH1 0x20 ADD ADD DUP2 SWAP1 MSTORE POP DUP2 DUP1 PUSH2 0xA20 SWAP1 PUSH2 0x1A25 JUMP JUMPDEST SWAP3 POP POP JUMPDEST DUP1 DUP1 PUSH1 0x1 ADD SWAP2 POP POP PUSH2 0x918 JUMP JUMPDEST POP POP POP POP POP SWAP2 SWAP1 POP JUMP JUMPDEST PUSH1 0x60 DUP1 PUSH1 0x0 DUP1 PUSH1 0x0 DUP1 PUSH1 0x0 DUP1 PUSH1 0x0 DUP10 DUP2 MSTORE PUSH1 0x20 ADD SWAP1 DUP2 MSTORE PUSH1 0x20 ADD PUSH1 0x0 KECCAK256 SWAP1 POP DUP1 PUSH1 0x0 ADD DUP2 PUSH1 0x1 ADD DUP3 PUSH1 0x2 ADD PUSH1 0x0 SWAP1 SLOAD SWAP1 PUSH2 0x100 EXP SWAP1 DIV PUSH1 0xFF AND DUP4 PUSH1 0x5 ADD PUSH1 0x0 SWAP1 SLOAD SWAP1 PUSH2 0x100 EXP SWAP1 DIV PUSH1 0xFF AND DUP5 PUSH1 0x3 ADD SLOAD DUP6 PUSH1 0x4 ADD SLOAD DUP6 DUP1 SLOAD PUSH2 0xA9C SWAP1 PUSH2 0x17F8 JUMP JUMPDEST DUP1 PUSH1 0x1F ADD PUSH1 0x20 DUP1 SWAP2 DIV MUL PUSH1 0x20 ADD PUSH1 0x40 MLOAD SWAP1 DUP2 ADD PUSH1 0x40 MSTORE DUP1 SWAP3 SWAP2 SWAP1 DUP2 DUP2 MSTORE PUSH1 0x20 ADD DUP3 DUP1 SLOAD PUSH2 0xAC8 SWAP1 PUSH2 0x17F8 JUMP JUMPDEST DUP1 ISZERO PUSH2 0xB15 JUMPI DUP1 PUSH1 0x1F LT PUSH2 0xAEA JUMPI PUSH2 0x100 DUP1 DUP4 SLOAD DIV MUL DUP4 MSTORE SWAP2 PUSH1 0x20 ADD SWAP2 PUSH2 0xB15 JUMP JUMPDEST DUP3 ADD SWAP2 SWAP1 PUSH1 0x0 MSTORE PUSH1 0x20 PUSH1 0x0 KECCAK256 SWAP1 JUMPDEST DUP2 SLOAD DUP2 MSTORE SWAP1 PUSH1 0x1 ADD SWAP1 PUSH1 0x20 ADD DUP1 DUP4 GT PUSH2 0xAF8 JUMPI DUP3 SWAP1 SUB PUSH1 0x1F AND DUP3 ADD SWAP2 JUMPDEST POP POP POP POP POP SWAP6 POP DUP5 DUP1 SLOAD DUP1 PUSH1 0x20 MUL PUSH1 0x20 ADD PUSH1 0x40 MLOAD SWAP1 DUP2 ADD PUSH1 0x40 MSTORE DUP1 SWAP3 SWAP2 SWAP1 DUP2 DUP2 MSTORE PUSH1 0x20 ADD PUSH1 0x0 SWAP1 JUMPDEST DUP3 DUP3 LT ISZERO PUSH2 0xBE9 JUMPI DUP4 DUP3 SWAP1 PUSH1 0x0 MSTORE PUSH1 0x20 PUSH1 0x0 KECCAK256 ADD DUP1 SLOAD PUSH2 0xB5C SWAP1 PUSH2 0x17F8 JUMP JUMPDEST DUP1 PUSH1 0x1F ADD PUSH1 0x20 DUP1 SWAP2 DIV MUL PUSH1 0x20 ADD PUSH1 0x40 MLOAD SWAP1 DUP2 ADD PUSH1 0x40 MSTORE DUP1 SWAP3 SWAP2 SWAP1 DUP2 DUP2 MSTORE PUSH1 0x20 ADD DUP3 DUP1 SLOAD PUSH2 0xB88 SWAP1 PUSH2 0x17F8 JUMP JUMPDEST DUP1 ISZERO PUSH2 0xBD5 JUMPI DUP1 PUSH1 0x1F LT PUSH2 0xBAA JUMPI PUSH2 0x100 DUP1 DUP4 SLOAD DIV MUL DUP4 MSTORE SWAP2 PUSH1 0x20 ADD SWAP2 PUSH2 0xBD5 JUMP JUMPDEST DUP3 ADD SWAP2 SWAP1 PUSH1 0x0 MSTORE PUSH1 0x20 PUSH1 0x0 KECCAK256 SWAP1 JUMPDEST DUP2 SLOAD DUP2 MSTORE SWAP1 PUSH1 0x1 ADD SWAP1 PUSH1 0x20 ADD DUP1 DUP4 GT PUSH2 0xBB8 JUMPI DUP3 SWAP1 SUB PUSH1 0x1F AND DUP3 ADD SWAP2 JUMPDEST POP POP POP POP POP DUP2 MSTORE PUSH1 0x20 ADD SWAP1 PUSH1 0x1 ADD SWAP1 PUSH2 0xB3D JUMP JUMPDEST POP POP POP POP SWAP5 POP SWAP7 POP SWAP7 POP SWAP7 POP SWAP7 POP SWAP7 POP SWAP7 POP POP SWAP2 SWAP4 SWAP6 POP SWAP2 SWAP4 SWAP6 JUMP JUMPDEST PUSH1 0x0 DUP1 PUSH1 0x0 DUP5 DUP2 MSTORE PUSH1 0x20 ADD SWAP1 DUP2 MSTORE PUSH1 0x20 ADD PUSH1 0x0 KECCAK256 SWAP1 POP DUP1 PUSH1 0x2 ADD PUSH1 0x0 SWAP1 SLOAD SWAP1 PUSH2 0x100 EXP SWAP1 DIV PUSH1 0xFF AND PUSH2 0xC6C JUMPI PUSH1 0x40 MLOAD PUSH32 0x8C379A000000000000000000000000000000000000000000000000000000000 DUP2 MSTORE PUSH1 0x4 ADD PUSH2 0xC63 SWAP1 PUSH2 0x209E JUMP JUMPDEST PUSH1 0x40 MLOAD DUP1 SWAP2 SUB SWAP1 REVERT JUMPDEST DUP1 PUSH1 0x4 ADD SLOAD TIMESTAMP GT ISZERO PUSH2 0xCB3 JUMPI PUSH1 0x40 MLOAD PUSH32 0x8C379A000000000000000000000000000000000000000000000000000000000 DUP2 MSTORE PUSH1 0x4 ADD PUSH2 0xCAA SWAP1 PUSH2 0x210A JUMP JUMPDEST PUSH1 0x40 MLOAD DUP1 SWAP2 SUB SWAP1 REVERT JUMPDEST DUP1 PUSH1 0x7 ADD PUSH1 0x0 CALLER PUSH20 0xFFFFFFFFFFFFFFFFFFFFFFFFFFFFFFFFFFFFFFFF AND PUSH20 0xFFFFFFFFFFFFFFFFFFFFFFFFFFFFFFFFFFFFFFFF AND DUP2 MSTORE PUSH1 0x20 ADD SWAP1 DUP2 MSTORE PUSH1 0x20 ADD PUSH1 0x0 KECCAK256 PUSH1 0x0 SWAP1 SLOAD SWAP1 PUSH2 0x100 EXP SWAP1 DIV PUSH1 0xFF AND ISZERO PUSH2 0xD42 JUMPI PUSH1 0x40 MLOAD PUSH32 0x8C379A000000000000000000000000000000000000000000000000000000000 DUP2 MSTORE PUSH1 0x4 ADD PUSH2 0xD39 SWAP1 PUSH2 0x2176 JUMP JUMPDEST PUSH1 0x40 MLOAD DUP1 SWAP2 SUB SWAP1 REVERT JUMPDEST DUP1 PUSH1 0x1 ADD DUP1 SLOAD SWAP1 POP DUP3 LT PUSH2 0xD8B JUMPI PUSH1 0x40 MLOAD PUSH32 0x8C379A000000000000000000000000000000000000000000000000000000000 DUP2 MSTORE PUSH1 0x4 ADD PUSH2 0xD82 SWAP1 PUSH2 0x21E2 JUMP JUMPDEST PUSH1 0x40 MLOAD DUP1 SWAP2 SUB SWAP1 REVERT JUMPDEST PUSH1 0x1 DUP2 PUSH1 0x7 ADD PUSH1 0x0 CALLER PUSH20 0xFFFFFFFFFFFFFFFFFFFFFFFFFFFFFFFFFFFFFFFF AND PUSH20 0xFFFFFFFFFFFFFFFFFFFFFFFFFFFFFFFFFFFFFFFF AND DUP2 MSTORE PUSH1 0x20 ADD SWAP1 DUP2 MSTORE PUSH1 0x20 ADD PUSH1 0x0 KECCAK256 PUSH1 0x0 PUSH2 0x100 EXP DUP2 SLOAD DUP2 PUSH1 0xFF MUL NOT AND SWAP1 DUP4 ISZERO ISZERO MUL OR SWAP1 SSTORE POP PUSH1 0x1 DUP2 PUSH1 0x6 ADD DUP4 DUP2 SLOAD DUP2 LT PUSH2 0xDFD JUMPI PUSH2 0xDFC PUSH2 0x198A JUMP JUMPDEST JUMPDEST SWAP1 PUSH1 0x0 MSTORE PUSH1 0x20 PUSH1 0x0 KECCAK256 ADD PUSH1 0x0 DUP3 DUP3 SLOAD PUSH2 0xE16 SWAP2 SWAP1 PUSH2 0x1956 JUMP JUMPDEST SWAP3 POP POP DUP2 SWAP1 SSTORE POP DUP2 CALLER PUSH20 0xFFFFFFFFFFFFFFFFFFFFFFFFFFFFFFFFFFFFFFFF AND DUP5 PUSH32 0x2ACCE567DECA3AABF56327ADBB4524BD5318936EAEFA69E3A5208FFDA0CFEC09 PUSH1 0x40 MLOAD PUSH1 0x40 MLOAD DUP1 SWAP2 SUB SWAP1 LOG4 POP POP POP JUMP JUMPDEST PUSH1 0x1 SLOAD DUP2 JUMP JUMPDEST PUSH1 0x60 PUSH1 0x0 DUP1 PUSH1 0x0 DUP5 DUP2 MSTORE PUSH1 0x20 ADD SWAP1 DUP2 MSTORE PUSH1 0x20 ADD PUSH1 0x0 KECCAK256 SWAP1 POP DUP1 PUSH1 0x6 ADD DUP1 SLOAD DUP1 PUSH1 0x20 MUL PUSH1 0x20 ADD PUSH1 0x40 MLOAD SWAP1 DUP2 ADD PUSH1 0x40 MSTORE DUP1 SWAP3 SWAP2 SWAP1 DUP2 DUP2 MSTORE PUSH1 0x20 ADD DUP3 DUP1 SLOAD DUP1 ISZERO PUSH2 0xED3 JUMPI PUSH1 0x20 MUL DUP3 ADD SWAP2 SWAP1 PUSH1 0x0 MSTORE PUSH1 0x20 PUSH1 0x0 KECCAK256 SWAP1 JUMPDEST DUP2 SLOAD DUP2 MSTORE PUSH1 0x20 ADD SWAP1 PUSH1 0x1 ADD SWAP1 DUP1 DUP4 GT PUSH2 0xEBF JUMPI JUMPDEST POP POP POP POP POP SWAP2 POP POP SWAP2 SWAP1 POP JUMP JUMPDEST DUP3 DUP1 SLOAD DUP3 DUP3 SSTORE SWAP1 PUSH1 0x0 MSTORE PUSH1 0x20 PUSH1 0x0 KECCAK256 SWAP1 DUP2 ADD SWAP3 DUP3 ISZERO PUSH2 0xF28 JUMPI SWAP2 PUSH1 0x20 MUL DUP3 ADD JUMPDEST DUP3 DUP2 GT ISZERO PUSH2 0xF27 JUMPI DUP3 MLOAD DUP3 SWAP1 DUP2 PUSH2 0xF17 SWAP2 SWAP1 PUSH2 0x1C19 JUMP JUMPDEST POP SWAP2 PUSH1 0x20 ADD SWAP2 SWAP1 PUSH1 0x1 ADD SWAP1 PUSH2 0xF00 JUMP JUMPDEST JUMPDEST POP SWAP1 POP PUSH2 0xF35 SWAP2 SWAP1 PUSH2 0xF86 JUMP JUMPDEST POP SWAP1 JUMP JUMPDEST DUP3 DUP1 SLOAD DUP3 DUP3 SSTORE SWAP1 PUSH1 0x0 MSTORE PUSH1 0x20 PUSH1 0x0 KECCAK256 SWAP1 DUP2 ADD SWAP3 DUP3 ISZERO PUSH2 0xF75 JUMPI SWAP2 PUSH1 0x20 MUL DUP3 ADD JUMPDEST DUP3 DUP2 GT ISZERO PUSH2 0xF74 JUMPI DUP3 MLOAD DUP3 SSTORE SWAP2 PUSH1 0x20 ADD SWAP2 SWAP1 PUSH1 0x1 ADD SWAP1 PUSH2 0xF59 JUMP JUMPDEST JUMPDEST POP SWAP1 POP PUSH2 0xF82 SWAP2 SWAP1 PUSH2 0xFAA JUMP JUMPDEST POP SWAP1 JUMP JUMPDEST JUMPDEST DUP1 DUP3 GT ISZERO PUSH2 0xFA6 JUMPI PUSH1 0x0 DUP2 DUP2 PUSH2 0xF9D SWAP2 SWAP1 PUSH2 0xFC7 JUMP JUMPDEST POP PUSH1 0x1 ADD PUSH2 0xF87 JUMP JUMPDEST POP SWAP1 JUMP JUMPDEST JUMPDEST DUP1 DUP3 GT ISZERO PUSH2 0xFC3 JUMPI PUSH1 0x0 DUP2 PUSH1 0x0 SWAP1 SSTORE POP PUSH1 0x1 ADD PUSH2 0xFAB JUMP JUMPDEST POP SWAP1 JUMP JUMPDEST POP DUP1 SLOAD PUSH2 0xFD3 SWAP1 PUSH2 0x17F8 JUMP JUMPDEST PUSH1 0x0 DUP3 SSTORE DUP1 PUSH1 0x1F LT PUSH2 0xFE5 JUMPI POP PUSH2 0x1004 JUMP JUMPDEST PUSH1 0x1F ADD PUSH1 0x20 SWAP1 DIV SWAP1 PUSH1 0x0 MSTORE PUSH1 0x20 PUSH1 0x0 KECCAK256 SWAP1 DUP2 ADD SWAP1 PUSH2 0x1003 SWAP2 SWAP1 PUSH2 0xFAA JUMP JUMPDEST JUMPDEST POP JUMP JUMPDEST PUSH1 0x0 PUSH1 0x40 MLOAD SWAP1 POP SWAP1 JUMP JUMPDEST PUSH1 0x0 DUP1 REVERT JUMPDEST PUSH1 0x0 DUP1 REVERT JUMPDEST PUSH1 0x0 DUP2 SWAP1 POP SWAP2 SWAP1 POP JUMP JUMPDEST PUSH2 0x102E DUP2 PUSH2 0x101B JUMP JUMPDEST DUP2 EQ PUSH2 0x1039 JUMPI PUSH1 0x0 DUP1 REVERT JUMPDEST POP JUMP JUMPDEST PUSH1 0x0 DUP2 CALLDATALOAD SWAP1 POP PUSH2 0x104B DUP2 PUSH2 0x1025 JUMP JUMPDEST SWAP3 SWAP2 POP POP JUMP JUMPDEST PUSH1 0x0 PUSH1 0x20 DUP3 DUP5 SUB SLT ISZERO PUSH2 0x1067 JUMPI PUSH2 0x1066 PUSH2 0x1011 JUMP JUMPDEST JUMPDEST PUSH1 0x0 PUSH2 0x1075 DUP5 DUP3 DUP6 ADD PUSH2 0x103C JUMP JUMPDEST SWAP2 POP POP SWAP3 SWAP2 POP POP JUMP JUMPDEST PUSH1 0x0 DUP2 MLOAD SWAP1 POP SWAP2 SWAP1 POP JUMP JUMPDEST PUSH1 0x0 DUP3 DUP3 MSTORE PUSH1 0x20 DUP3 ADD SWAP1 POP SWAP3 SWAP2 POP POP JUMP JUMPDEST PUSH1 0x0 JUMPDEST DUP4 DUP2 LT ISZERO PUSH2 0x10B8 JUMPI DUP1 DUP3 ADD MLOAD DUP2 DUP5 ADD MSTORE PUSH1 0x20 DUP2 ADD SWAP1 POP PUSH2 0x109D JUMP JUMPDEST PUSH1 0x0 DUP5 DUP5 ADD MSTORE POP POP POP POP JUMP JUMPDEST PUSH1 0x0 PUSH1 0x1F NOT PUSH1 0x1F DUP4 ADD AND SWAP1 POP SWAP2 SWAP1 POP JUMP JUMPDEST PUSH1 0x0 PUSH2 0x10E0 DUP3 PUSH2 0x107E JUMP JUMPDEST PUSH2 0x10EA DUP2 DUP6 PUSH2 0x1089 JUMP JUMPDEST SWAP4 POP PUSH2 0x10FA DUP2 DUP6 PUSH1 0x20 DUP7 ADD PUSH2 0x109A JUMP JUMPDEST PUSH2 0x1103 DUP2 PUSH2 0x10C4 JUMP JUMPDEST DUP5 ADD SWAP2 POP POP SWAP3 SWAP2 POP POP JUMP JUMPDEST PUSH1 0x0 DUP2 ISZERO ISZERO SWAP1 POP SWAP2 SWAP1 POP JUMP JUMPDEST PUSH2 0x1123 DUP2 PUSH2 0x110E JUMP JUMPDEST DUP3 MSTORE POP POP JUMP JUMPDEST PUSH2 0x1132 DUP2 PUSH2 0x101B JUMP JUMPDEST DUP3 MSTORE POP POP JUMP JUMPDEST PUSH1 0x0 PUSH1 0xA0 DUP3 ADD SWAP1 POP DUP2 DUP2 SUB PUSH1 0x0 DUP4 ADD MSTORE PUSH2 0x1152 DUP2 DUP9 PUSH2 0x10D5 JUMP JUMPDEST SWAP1 POP PUSH2 0x1161 PUSH1 0x20 DUP4 ADD DUP8 PUSH2 0x111A JUMP JUMPDEST PUSH2 0x116E PUSH1 0x40 DUP4 ADD DUP7 PUSH2 0x1129 JUMP JUMPDEST PUSH2 0x117B PUSH1 0x60 DUP4 ADD DUP6 PUSH2 0x1129 JUMP JUMPDEST PUSH2 0x1188 PUSH1 0x80 DUP4 ADD DUP5 PUSH2 0x111A JUMP JUMPDEST SWAP7 SWAP6 POP POP POP POP POP POP JUMP JUMPDEST PUSH1 0x0 DUP1 REVERT JUMPDEST PUSH1 0x0 DUP1 REVERT JUMPDEST PUSH32 0x4E487B7100000000000000000000000000000000000000000000000000000000 PUSH1 0x0 MSTORE PUSH1 0x41 PUSH1 0x4 MSTORE PUSH1 0x24 PUSH1 0x0 REVERT JUMPDEST PUSH2 0x11D4 DUP3 PUSH2 0x10C4 JUMP JUMPDEST DUP2 ADD DUP2 DUP2 LT PUSH8 0xFFFFFFFFFFFFFFFF DUP3 GT OR ISZERO PUSH2 0x11F3 JUMPI PUSH2 0x11F2 PUSH2 0x119C JUMP JUMPDEST JUMPDEST DUP1 PUSH1 0x40 MSTORE POP POP POP JUMP JUMPDEST PUSH1 0x0 PUSH2 0x1206 PUSH2 0x1007 JUMP JUMPDEST SWAP1 POP PUSH2 0x1212 DUP3 DUP3 PUSH2 0x11CB JUMP JUMPDEST SWAP2 SWAP1 POP JUMP JUMPDEST PUSH1 0x0 PUSH8 0xFFFFFFFFFFFFFFFF DUP3 GT ISZERO PUSH2 0x1232 JUMPI PUSH2 0x1231 PUSH2 0x119C JUMP JUMPDEST JUMPDEST PUSH2 0x123B DUP3 PUSH2 0x10C4 JUMP JUMPDEST SWAP1 POP PUSH1 0x20 DUP2 ADD SWAP1 POP SWAP2 SWAP1 POP JUMP JUMPDEST DUP3 DUP2 DUP4 CALLDATACOPY PUSH1 0x0 DUP4 DUP4 ADD MSTORE POP POP POP JUMP JUMPDEST PUSH1 0x0 PUSH2 0x126A PUSH2 0x1265 DUP5 PUSH2 0x1217 JUMP JUMPDEST PUSH2 0x11FC JUMP JUMPDEST SWAP1 POP DUP3 DUP2 MSTORE PUSH1 0x20 DUP2 ADD DUP5 DUP5 DUP5 ADD GT ISZERO PUSH2 0x1286 JUMPI PUSH2 0x1285 PUSH2 0x1197 JUMP JUMPDEST JUMPDEST PUSH2 0x1291 DUP5 DUP3 DUP6 PUSH2 0x1248 JUMP JUMPDEST POP SWAP4 SWAP3 POP POP POP JUMP JUMPDEST PUSH1 0x0 DUP3 PUSH1 0x1F DUP4 ADD SLT PUSH2 0x12AE JUMPI PUSH2 0x12AD PUSH2 0x1192 JUMP JUMPDEST JUMPDEST DUP2 CALLDATALOAD PUSH2 0x12BE DUP5 DUP3 PUSH1 0x20 DUP7 ADD PUSH2 0x1257 JUMP JUMPDEST SWAP2 POP POP SWAP3 SWAP2 POP POP JUMP JUMPDEST PUSH1 0x0 PUSH8 0xFFFFFFFFFFFFFFFF DUP3 GT ISZERO PUSH2 0x12E2 JUMPI PUSH2 0x12E1 PUSH2 0x119C JUMP JUMPDEST JUMPDEST PUSH1 0x20 DUP3 MUL SWAP1 POP PUSH1 0x20 DUP2 ADD SWAP1 POP SWAP2 SWAP1 POP JUMP JUMPDEST PUSH1 0x0 DUP1 REVERT JUMPDEST PUSH1 0x0 PUSH2 0x130B PUSH2 0x1306 DUP5 PUSH2 0x12C7 JUMP JUMPDEST PUSH2 0x11FC JUMP JUMPDEST SWAP1 POP DUP1 DUP4 DUP3 MSTORE PUSH1 0x20 DUP3 ADD SWAP1 POP PUSH1 0x20 DUP5 MUL DUP4 ADD DUP6 DUP2 GT ISZERO PUSH2 0x132E JUMPI PUSH2 0x132D PUSH2 0x12F3 JUMP JUMPDEST JUMPDEST DUP4 JUMPDEST DUP2 DUP2 LT ISZERO PUSH2 0x1375 JUMPI DUP1 CALLDATALOAD PUSH8 0xFFFFFFFFFFFFFFFF DUP2 GT ISZERO PUSH2 0x1353 JUMPI PUSH2 0x1352 PUSH2 0x1192 JUMP JUMPDEST JUMPDEST DUP1 DUP7 ADD PUSH2 0x1360 DUP10 DUP3 PUSH2 0x1299 JUMP JUMPDEST DUP6 MSTORE PUSH1 0x20 DUP6 ADD SWAP5 POP POP POP PUSH1 0x20 DUP2 ADD SWAP1 POP PUSH2 0x1330 JUMP JUMPDEST POP POP POP SWAP4 SWAP3 POP POP POP JUMP JUMPDEST PUSH1 0x0 DUP3 PUSH1 0x1F DUP4 ADD SLT PUSH2 0x1394 JUMPI PUSH2 0x1393 PUSH2 0x1192 JUMP JUMPDEST JUMPDEST DUP2 CALLDATALOAD PUSH2 0x13A4 DUP5 DUP3 PUSH1 0x20 DUP7 ADD PUSH2 0x12F8 JUMP JUMPDEST SWAP2 POP POP SWAP3 SWAP2 POP POP JUMP JUMPDEST PUSH1 0x0 DUP1 PUSH1 0x0 PUSH1 0x60 DUP5 DUP7 SUB SLT ISZERO PUSH2 0x13C6 JUMPI PUSH2 0x13C5 PUSH2 0x1011 JUMP JUMPDEST JUMPDEST PUSH1 0x0 DUP5 ADD CALLDATALOAD PUSH8 0xFFFFFFFFFFFFFFFF DUP2 GT ISZERO PUSH2 0x13E4 JUMPI PUSH2 0x13E3 PUSH2 0x1016 JUMP JUMPDEST JUMPDEST PUSH2 0x13F0 DUP7 DUP3 DUP8 ADD PUSH2 0x1299 JUMP JUMPDEST SWAP4 POP POP PUSH1 0x20 DUP5 ADD CALLDATALOAD PUSH8 0xFFFFFFFFFFFFFFFF DUP2 GT ISZERO PUSH2 0x1411 JUMPI PUSH2 0x1410 PUSH2 0x1016 JUMP JUMPDEST JUMPDEST PUSH2 0x141D DUP7 DUP3 DUP8 ADD PUSH2 0x137F JUMP JUMPDEST SWAP3 POP POP PUSH1 0x40 PUSH2 0x142E DUP7 DUP3 DUP8 ADD PUSH2 0x103C JUMP JUMPDEST SWAP2 POP POP SWAP3 POP SWAP3 POP SWAP3 JUMP JUMPDEST PUSH1 0x0 PUSH1 0x20 DUP3 ADD SWAP1 POP PUSH2 0x144D PUSH1 0x0 DUP4 ADD DUP5 PUSH2 0x1129 JUMP JUMPDEST SWAP3 SWAP2 POP POP JUMP JUMPDEST PUSH1 0x0 PUSH20 0xFFFFFFFFFFFFFFFFFFFFFFFFFFFFFFFFFFFFFFFF DUP3 AND SWAP1 POP SWAP2 SWAP1 POP JUMP JUMPDEST PUSH1 0x0 PUSH2 0x147E DUP3 PUSH2 0x1453 JUMP JUMPDEST SWAP1 POP SWAP2 SWAP1 POP JUMP JUMPDEST PUSH2 0x148E DUP2 PUSH2 0x1473 JUMP JUMPDEST DUP2 EQ PUSH2 0x1499 JUMPI PUSH1 0x0 DUP1 REVERT JUMPDEST POP JUMP JUMPDEST PUSH1 0x0 DUP2 CALLDATALOAD SWAP1 POP PUSH2 0x14AB DUP2 PUSH2 0x1485 JUMP JUMPDEST SWAP3 SWAP2 POP POP JUMP JUMPDEST PUSH1 0x0 DUP1 PUSH1 0x40 DUP4 DUP6 SUB SLT ISZERO PUSH2 0x14C8 JUMPI PUSH2 0x14C7 PUSH2 0x1011 JUMP JUMPDEST JUMPDEST PUSH1 0x0 PUSH2 0x14D6 DUP6 DUP3 DUP7 ADD PUSH2 0x103C JUMP JUMPDEST SWAP3 POP POP PUSH1 0x20 PUSH2 0x14E7 DUP6 DUP3 DUP7 ADD PUSH2 0x149C JUMP JUMPDEST SWAP2 POP POP SWAP3 POP SWAP3 SWAP1 POP JUMP JUMPDEST PUSH1 0x0 PUSH1 0x20 DUP3 ADD SWAP1 POP PUSH2 0x1506 PUSH1 0x0 DUP4 ADD DUP5 PUSH2 0x111A JUMP JUMPDEST SWAP3 SWAP2 POP POP JUMP JUMPDEST PUSH1 0x0 DUP2 MLOAD SWAP1 POP SWAP2 SWAP1 POP JUMP JUMPDEST PUSH1 0x0 DUP3 DUP3 MSTORE PUSH1 0x20 DUP3 ADD SWAP1 POP SWAP3 SWAP2 POP POP JUMP JUMPDEST PUSH1 0x0 DUP2 SWAP1 POP PUSH1 0x20 DUP3 ADD SWAP1 POP SWAP2 SWAP1 POP JUMP JUMPDEST PUSH1 0x0 DUP3 DUP3 MSTORE PUSH1 0x20 DUP3 ADD SWAP1 POP SWAP3 SWAP2 POP POP JUMP JUMPDEST PUSH1 0x0 PUSH2 0x1554 DUP3 PUSH2 0x107E JUMP JUMPDEST PUSH2 0x155E DUP2 DUP6 PUSH2 0x1538 JUMP JUMPDEST SWAP4 POP PUSH2 0x156E DUP2 DUP6 PUSH1 0x20 DUP7 ADD PUSH2 0x109A JUMP JUMPDEST PUSH2 0x1577 DUP2 PUSH2 0x10C4 JUMP JUMPDEST DUP5 ADD SWAP2 POP POP SWAP3 SWAP2 POP POP JUMP JUMPDEST PUSH1 0x0 PUSH2 0x158E DUP4 DUP4 PUSH2 0x1549 JUMP JUMPDEST SWAP1 POP SWAP3 SWAP2 POP POP JUMP JUMPDEST PUSH1 0x0 PUSH1 0x20 DUP3 ADD SWAP1 POP SWAP2 SWAP1 POP JUMP JUMPDEST PUSH1 0x0 PUSH2 0x15AE DUP3 PUSH2 0x150C JUMP JUMPDEST PUSH2 0x15B8 DUP2 DUP6 PUSH2 0x1517 JUMP JUMPDEST SWAP4 POP DUP4 PUSH1 0x20 DUP3 MUL DUP6 ADD PUSH2 0x15CA DUP6 PUSH2 0x1528 JUMP JUMPDEST DUP1 PUSH1 0x0 JUMPDEST DUP6 DUP2 LT ISZERO PUSH2 0x1606 JUMPI DUP5 DUP5 SUB DUP10 MSTORE DUP2 MLOAD PUSH2 0x15E7 DUP6 DUP3 PUSH2 0x1582 JUMP JUMPDEST SWAP5 POP PUSH2 0x15F2 DUP4 PUSH2 0x1596 JUMP JUMPDEST SWAP3 POP PUSH1 0x20 DUP11 ADD SWAP10 POP POP PUSH1 0x1 DUP2 ADD SWAP1 POP PUSH2 0x15CE JUMP JUMPDEST POP DUP3 SWAP8 POP DUP8 SWAP6 POP POP POP POP POP POP SWAP3 SWAP2 POP POP JUMP JUMPDEST PUSH1 0x0 PUSH1 0x20 DUP3 ADD SWAP1 POP DUP2 DUP2 SUB PUSH1 0x0 DUP4 ADD MSTORE PUSH2 0x1632 DUP2 DUP5 PUSH2 0x15A3 JUMP JUMPDEST SWAP1 POP SWAP3 SWAP2 POP POP JUMP JUMPDEST PUSH1 0x0 PUSH1 0xC0 DUP3 ADD SWAP1 POP DUP2 DUP2 SUB PUSH1 0x0 DUP4 ADD MSTORE PUSH2 0x1654 DUP2 DUP10 PUSH2 0x10D5 JUMP JUMPDEST SWAP1 POP DUP2 DUP2 SUB PUSH1 0x20 DUP4 ADD MSTORE PUSH2 0x1668 DUP2 DUP9 PUSH2 0x15A3 JUMP JUMPDEST SWAP1 POP PUSH2 0x1677 PUSH1 0x40 DUP4 ADD DUP8 PUSH2 0x111A JUMP JUMPDEST PUSH2 0x1684 PUSH1 0x60 DUP4 ADD DUP7 PUSH2 0x111A JUMP JUMPDEST PUSH2 0x1691 PUSH1 0x80 DUP4 ADD DUP6 PUSH2 0x1129 JUMP JUMPDEST PUSH2 0x169E PUSH1 0xA0 DUP4 ADD DUP5 PUSH2 0x1129 JUMP JUMPDEST SWAP8 SWAP7 POP POP POP POP POP POP POP JUMP JUMPDEST PUSH1 0x0 DUP1 PUSH1 0x40 DUP4 DUP6 SUB SLT ISZERO PUSH2 0x16C0 JUMPI PUSH2 0x16BF PUSH2 0x1011 JUMP JUMPDEST JUMPDEST PUSH1 0x0 PUSH2 0x16CE DUP6 DUP3 DUP7 ADD PUSH2 0x103C JUMP JUMPDEST SWAP3 POP POP PUSH1 0x20 PUSH2 0x16DF DUP6 DUP3 DUP7 ADD PUSH2 0x103C JUMP JUMPDEST SWAP2 POP POP SWAP3 POP SWAP3 SWAP1 POP JUMP JUMPDEST PUSH1 0x0 DUP2 MLOAD SWAP1 POP SWAP2 SWAP1 POP JUMP JUMPDEST PUSH1 0x0 DUP3 DUP3 MSTORE PUSH1 0x20 DUP3 ADD SWAP1 POP SWAP3 SWAP2 POP POP JUMP JUMPDEST PUSH1 0x0 DUP2 SWAP1 POP PUSH1 0x20 DUP3 ADD SWAP1 POP SWAP2 SWAP1 POP JUMP JUMPDEST PUSH2 0x171E DUP2 PUSH2 0x101B JUMP JUMPDEST DUP3 MSTORE POP POP JUMP JUMPDEST PUSH1 0x0 PUSH2 0x1730 DUP4 DUP4 PUSH2 0x1715 JUMP JUMPDEST PUSH1 0x20 DUP4 ADD SWAP1 POP SWAP3 SWAP2 POP POP JUMP JUMPDEST PUSH1 0x0 PUSH1 0x20 DUP3 ADD SWAP1 POP SWAP2 SWAP1 POP JUMP JUMPDEST PUSH1 0x0 PUSH2 0x1754 DUP3 PUSH2 0x16E9 JUMP JUMPDEST PUSH2 0x175E DUP2 DUP6 PUSH2 0x16F4 JUMP JUMPDEST SWAP4 POP PUSH2 0x1769 DUP4 PUSH2 0x1705 JUMP JUMPDEST DUP1 PUSH1 0x0 JUMPDEST DUP4 DUP2 LT ISZERO PUSH2 0x179A JUMPI DUP2 MLOAD PUSH2 0x1781 DUP9 DUP3 PUSH2 0x1724 JUMP JUMPDEST SWAP8 POP PUSH2 0x178C DUP4 PUSH2 0x173C JUMP JUMPDEST SWAP3 POP POP PUSH1 0x1 DUP2 ADD SWAP1 POP PUSH2 0x176D JUMP JUMPDEST POP DUP6 SWAP4 POP POP POP POP SWAP3 SWAP2 POP POP JUMP JUMPDEST PUSH1 0x0 PUSH1 0x20 DUP3 ADD SWAP1 POP DUP2 DUP2 SUB PUSH1 0x0 DUP4 ADD MSTORE PUSH2 0x17C1 DUP2 DUP5 PUSH2 0x1749 JUMP JUMPDEST SWAP1 POP SWAP3 SWAP2 POP POP JUMP JUMPDEST PUSH32 0x4E487B7100000000000000000000000000000000000000000000000000000000 PUSH1 0x0 MSTORE PUSH1 0x22 PUSH1 0x4 MSTORE PUSH1 0x24 PUSH1 0x0 REVERT JUMPDEST PUSH1 0x0 PUSH1 0x2 DUP3 DIV SWAP1 POP PUSH1 0x1 DUP3 AND DUP1 PUSH2 0x1810 JUMPI PUSH1 0x7F DUP3 AND SWAP2 POP JUMPDEST PUSH1 0x20 DUP3 LT DUP2 SUB PUSH2 0x1823 JUMPI PUSH2 0x1822 PUSH2 0x17C9 JUMP JUMPDEST JUMPDEST POP SWAP2 SWAP1 POP JUMP JUMPDEST PUSH32 0x4E656564206174206C656173742074776F2063616E646964617465732E000000 PUSH1 0x0 DUP3 ADD MSTORE POP JUMP JUMPDEST PUSH1 0x0 PUSH2 0x185F PUSH1 0x1D DUP4 PUSH2 0x1089 JUMP JUMPDEST SWAP2 POP PUSH2 0x186A DUP3 PUSH2 0x1829 JUMP JUMPDEST PUSH1 0x20 DUP3 ADD SWAP1 POP SWAP2 SWAP1 POP JUMP JUMPDEST PUSH1 0x0 PUSH1 0x20 DUP3 ADD SWAP1 POP DUP2 DUP2 SUB PUSH1 0x0 DUP4 ADD MSTORE PUSH2 0x188E DUP2 PUSH2 0x1852 JUMP JUMPDEST SWAP1 POP SWAP2 SWAP1 POP JUMP JUMPDEST PUSH32 0x4475726174696F6E206D7573742062652067726561746572207468616E207A65 PUSH1 0x0 DUP3 ADD MSTORE PUSH32 0x726F2E0000000000000000000000000000000000000000000000000000000000 PUSH1 0x20 DUP3 ADD MSTORE POP JUMP JUMPDEST PUSH1 0x0 PUSH2 0x18F1 PUSH1 0x23 DUP4 PUSH2 0x1089 JUMP JUMPDEST SWAP2 POP PUSH2 0x18FC DUP3 PUSH2 0x1895 JUMP JUMPDEST PUSH1 0x40 DUP3 ADD SWAP1 POP SWAP2 SWAP1 POP JUMP JUMPDEST PUSH1 0x0 PUSH1 0x20 DUP3 ADD SWAP1 POP DUP2 DUP2 SUB PUSH1 0x0 DUP4 ADD MSTORE PUSH2 0x1920 DUP2 PUSH2 0x18E4 JUMP JUMPDEST SWAP1 POP SWAP2 SWAP1 POP JUMP JUMPDEST PUSH32 0x4E487B7100000000000000000000000000000000000000000000000000000000 PUSH1 0x0 MSTORE PUSH1 0x11 PUSH1 0x4 MSTORE PUSH1 0x24 PUSH1 0x0 REVERT JUMPDEST PUSH1 0x0 PUSH2 0x1961 DUP3 PUSH2 0x101B JUMP JUMPDEST SWAP2 POP PUSH2 0x196C DUP4 PUSH2 0x101B JUMP JUMPDEST SWAP3 POP DUP3 DUP3 ADD SWAP1 POP DUP1 DUP3 GT ISZERO PUSH2 0x1984 JUMPI PUSH2 0x1983 PUSH2 0x1927 JUMP JUMPDEST JUMPDEST SWAP3 SWAP2 POP POP JUMP JUMPDEST PUSH32 0x4E487B7100000000000000000000000000000000000000000000000000000000 PUSH1 0x0 MSTORE PUSH1 0x32 PUSH1 0x4 MSTORE PUSH1 0x24 PUSH1 0x0 REVERT JUMPDEST PUSH32 0x4475706C69636174652063616E64696461746520666F756E642E000000000000 PUSH1 0x0 DUP3 ADD MSTORE POP JUMP JUMPDEST PUSH1 0x0 PUSH2 0x19EF PUSH1 0x1A DUP4 PUSH2 0x1089 JUMP JUMPDEST SWAP2 POP PUSH2 0x19FA DUP3 PUSH2 0x19B9 JUMP JUMPDEST PUSH1 0x20 DUP3 ADD SWAP1 POP SWAP2 SWAP1 POP JUMP JUMPDEST PUSH1 0x0 PUSH1 0x20 DUP3 ADD SWAP1 POP DUP2 DUP2 SUB PUSH1 0x0 DUP4 ADD MSTORE PUSH2 0x1A1E DUP2 PUSH2 0x19E2 JUMP JUMPDEST SWAP1 POP SWAP2 SWAP1 POP JUMP JUMPDEST PUSH1 0x0 PUSH2 0x1A30 DUP3 PUSH2 0x101B JUMP JUMPDEST SWAP2 POP PUSH32 0xFFFFFFFFFFFFFFFFFFFFFFFFFFFFFFFFFFFFFFFFFFFFFFFFFFFFFFFFFFFFFFFF DUP3 SUB PUSH2 0x1A62 JUMPI PUSH2 0x1A61 PUSH2 0x1927 JUMP JUMPDEST JUMPDEST PUSH1 0x1 DUP3 ADD SWAP1 POP SWAP2 SWAP1 POP JUMP JUMPDEST PUSH1 0x0 DUP2 SWAP1 POP DUP2 PUSH1 0x0 MSTORE PUSH1 0x20 PUSH1 0x0 KECCAK256 SWAP1 POP SWAP2 SWAP1 POP JUMP JUMPDEST PUSH1 0x0 PUSH1 0x20 PUSH1 0x1F DUP4 ADD DIV SWAP1 POP SWAP2 SWAP1 POP JUMP JUMPDEST PUSH1 0x0 DUP3 DUP3 SHL SWAP1 POP SWAP3 SWAP2 POP POP JUMP JUMPDEST PUSH1 0x0 PUSH1 0x8 DUP4 MUL PUSH2 0x1ACF PUSH32 0xFFFFFFFFFFFFFFFFFFFFFFFFFFFFFFFFFFFFFFFFFFFFFFFFFFFFFFFFFFFFFFFF DUP3 PUSH2 0x1A92 JUMP JUMPDEST PUSH2 0x1AD9 DUP7 DUP4 PUSH2 0x1A92 JUMP JUMPDEST SWAP6 POP DUP1 NOT DUP5 AND SWAP4 POP DUP1 DUP7 AND DUP5 OR SWAP3 POP POP POP SWAP4 SWAP3 POP POP POP JUMP JUMPDEST PUSH1 0x0 DUP2 SWAP1 POP SWAP2 SWAP1 POP JUMP JUMPDEST PUSH1 0x0 PUSH2 0x1B16 PUSH2 0x1B11 PUSH2 0x1B0C DUP5 PUSH2 0x101B JUMP JUMPDEST PUSH2 0x1AF1 JUMP JUMPDEST PUSH2 0x101B JUMP JUMPDEST SWAP1 POP SWAP2 SWAP1 POP JUMP JUMPDEST PUSH1 0x0 DUP2 SWAP1 POP SWAP2 SWAP1 POP JUMP JUMPDEST PUSH2 0x1B30 DUP4 PUSH2 0x1AFB JUMP JUMPDEST PUSH2 0x1B44 PUSH2 0x1B3C DUP3 PUSH2 0x1B1D JUMP JUMPDEST DUP5 DUP5 SLOAD PUSH2 0x1A9F JUMP JUMPDEST DUP3 SSTORE POP POP POP POP JUMP JUMPDEST PUSH1 0x0 SWAP1 JUMP JUMPDEST PUSH2 0x1B59 PUSH2 0x1B4C JUMP JUMPDEST PUSH2 0x1B64 DUP2 DUP5 DUP5 PUSH2 0x1B27 JUMP JUMPDEST POP POP POP JUMP JUMPDEST JUMPDEST DUP2 DUP2 LT ISZERO PUSH2 0x1B88 JUMPI PUSH2 0x1B7D PUSH1 0x0 DUP3 PUSH2 0x1B51 JUMP JUMPDEST PUSH1 0x1 DUP2 ADD SWAP1 POP PUSH2 0x1B6A JUMP JUMPDEST POP POP JUMP JUMPDEST PUSH1 0x1F DUP3 GT ISZERO PUSH2 0x1BCD JUMPI PUSH2 0x1B9E DUP2 PUSH2 0x1A6D JUMP JUMPDEST PUSH2 0x1BA7 DUP5 PUSH2 0x1A82 JUMP JUMPDEST DUP2 ADD PUSH1 0x20 DUP6 LT ISZERO PUSH2 0x1BB6 JUMPI DUP2 SWAP1 POP JUMPDEST PUSH2 0x1BCA PUSH2 0x1BC2 DUP6 PUSH2 0x1A82 JUMP JUMPDEST DUP4 ADD DUP3 PUSH2 0x1B69 JUMP JUMPDEST POP POP JUMPDEST POP POP POP JUMP JUMPDEST PUSH1 0x0 DUP3 DUP3 SHR SWAP1 POP SWAP3 SWAP2 POP POP JUMP JUMPDEST PUSH1 0x0 PUSH2 0x1BF0 PUSH1 0x0 NOT DUP5 PUSH1 0x8 MUL PUSH2 0x1BD2 JUMP JUMPDEST NOT DUP1 DUP4 AND SWAP2 POP POP SWAP3 SWAP2 POP POP JUMP JUMPDEST PUSH1 0x0 PUSH2 0x1C09 DUP4 DUP4 PUSH2 0x1BDF JUMP JUMPDEST SWAP2 POP DUP3 PUSH1 0x2 MUL DUP3 OR SWAP1 POP SWAP3 SWAP2 POP POP JUMP JUMPDEST PUSH2 0x1C22 DUP3 PUSH2 0x107E JUMP JUMPDEST PUSH8 0xFFFFFFFFFFFFFFFF DUP2 GT ISZERO PUSH2 0x1C3B JUMPI PUSH2 0x1C3A PUSH2 0x119C JUMP JUMPDEST JUMPDEST PUSH2 0x1C45 DUP3 SLOAD PUSH2 0x17F8 JUMP JUMPDEST PUSH2 0x1C50 DUP3 DUP3 DUP6 PUSH2 0x1B8C JUMP JUMPDEST PUSH1 0x0 PUSH1 0x20 SWAP1 POP PUSH1 0x1F DUP4 GT PUSH1 0x1 DUP2 EQ PUSH2 0x1C83 JUMPI PUSH1 0x0 DUP5 ISZERO PUSH2 0x1C71 JUMPI DUP3 DUP8 ADD MLOAD SWAP1 POP JUMPDEST PUSH2 0x1C7B DUP6 DUP3 PUSH2 0x1BFD JUMP JUMPDEST DUP7 SSTORE POP PUSH2 0x1CE3 JUMP JUMPDEST PUSH1 0x1F NOT DUP5 AND PUSH2 0x1C91 DUP7 PUSH2 0x1A6D JUMP JUMPDEST PUSH1 0x0 JUMPDEST DUP3 DUP2 LT ISZERO PUSH2 0x1CB9 JUMPI DUP5 DUP10 ADD MLOAD DUP3 SSTORE PUSH1 0x1 DUP3 ADD SWAP2 POP PUSH1 0x20 DUP6 ADD SWAP5 POP PUSH1 0x20 DUP2 ADD SWAP1 POP PUSH2 0x1C94 JUMP JUMPDEST DUP7 DUP4 LT ISZERO PUSH2 0x1CD6 JUMPI DUP5 DUP10 ADD MLOAD PUSH2 0x1CD2 PUSH1 0x1F DUP10 AND DUP3 PUSH2 0x1BDF JUMP JUMPDEST DUP4 SSTORE POP JUMPDEST PUSH1 0x1 PUSH1 0x2 DUP9 MUL ADD DUP9 SSTORE POP POP POP JUMPDEST POP POP POP POP POP POP JUMP JUMPDEST PUSH1 0x0 PUSH1 0x80 DUP3 ADD SWAP1 POP DUP2 DUP2 SUB PUSH1 0x0 DUP4 ADD MSTORE PUSH2 0x1D05 DUP2 DUP8 PUSH2 0x10D5 JUMP JUMPDEST SWAP1 POP DUP2 DUP2 SUB PUSH1 0x20 DUP4 ADD MSTORE PUSH2 0x1D19 DUP2 DUP7 PUSH2 0x15A3 JUMP JUMPDEST SWAP1 POP PUSH2 0x1D28 PUSH1 0x40 DUP4 ADD DUP6 PUSH2 0x1129 JUMP JUMPDEST PUSH2 0x1D35 PUSH1 0x60 DUP4 ADD DUP5 PUSH2 0x1129 JUMP JUMPDEST SWAP6 SWAP5 POP POP POP POP POP JUMP JUMPDEST PUSH32 0x496E76616C69642073657373696F6E2049442E00000000000000000000000000 PUSH1 0x0 DUP3 ADD MSTORE POP JUMP JUMPDEST PUSH1 0x0 PUSH2 0x1D74 PUSH1 0x13 DUP4 PUSH2 0x1089 JUMP JUMPDEST SWAP2 POP PUSH2 0x1D7F DUP3 PUSH2 0x1D3E JUMP JUMPDEST PUSH1 0x20 DUP3 ADD SWAP1 POP SWAP2 SWAP1 POP JUMP JUMPDEST PUSH1 0x0 PUSH1 0x20 DUP3 ADD SWAP1 POP DUP2 DUP2 SUB PUSH1 0x0 DUP4 ADD MSTORE PUSH2 0x1DA3 DUP2 PUSH2 0x1D67 JUMP JUMPDEST SWAP1 POP SWAP2 SWAP1 POP JUMP JUMPDEST PUSH32 0x53657373696F6E20616C72656164792066696E616C697A65642E000000000000 PUSH1 0x0 DUP3 ADD MSTORE POP JUMP JUMPDEST PUSH1 0x0 PUSH2 0x1DE0 PUSH1 0x1A DUP4 PUSH2 0x1089 JUMP JUMPDEST SWAP2 POP PUSH2 0x1DEB DUP3 PUSH2 0x1DAA JUMP JUMPDEST PUSH1 0x20 DUP3 ADD SWAP1 POP SWAP2 SWAP1 POP JUMP JUMPDEST PUSH1 0x0 PUSH1 0x20 DUP3 ADD SWAP1 POP DUP2 DUP2 SUB PUSH1 0x0 DUP4 ADD MSTORE PUSH2 0x1E0F DUP2 PUSH2 0x1DD3 JUMP JUMPDEST SWAP1 POP SWAP2 SWAP1 POP JUMP JUMPDEST PUSH32 0x566F74696E6720706572696F64206973207374696C6C206163746976652E0000 PUSH1 0x0 DUP3 ADD MSTORE POP JUMP JUMPDEST PUSH1 0x0 PUSH2 0x1E4C PUSH1 0x1E DUP4 PUSH2 0x1089 JUMP JUMPDEST SWAP2 POP PUSH2 0x1E57 DUP3 PUSH2 0x1E16 JUMP JUMPDEST PUSH1 0x20 DUP3 ADD SWAP1 POP SWAP2 SWAP1 POP JUMP JUMPDEST PUSH1 0x0 PUSH1 0x20 DUP3 ADD SWAP1 POP DUP2 DUP2 SUB PUSH1 0x0 DUP4 ADD MSTORE PUSH2 0x1E7B DUP2 PUSH2 0x1E3F JUMP JUMPDEST SWAP1 POP SWAP2 SWAP1 POP JUMP JUMPDEST PUSH32 0x526573756C747320616C72656164792063616C63756C617465642E0000000000 PUSH1 0x0 DUP3 ADD MSTORE POP JUMP JUMPDEST PUSH1 0x0 PUSH2 0x1EB8 PUSH1 0x1B DUP4 PUSH2 0x1089 JUMP JUMPDEST SWAP2 POP PUSH2 0x1EC3 DUP3 PUSH2 0x1E82 JUMP JUMPDEST PUSH1 0x20 DUP3 ADD SWAP1 POP SWAP2 SWAP1 POP JUMP JUMPDEST PUSH1 0x0 PUSH1 0x20 DUP3 ADD SWAP1 POP DUP2 DUP2 SUB PUSH1 0x0 DUP4 ADD MSTORE PUSH2 0x1EE7 DUP2 PUSH2 0x1EAB JUMP JUMPDEST SWAP1 POP SWAP2 SWAP1 POP JUMP JUMPDEST PUSH1 0x0 DUP2 SLOAD SWAP1 POP SWAP2 SWAP1 POP JUMP JUMPDEST PUSH1 0x0 DUP2 SWAP1 POP DUP2 PUSH1 0x0 MSTORE PUSH1 0x20 PUSH1 0x0 KECCAK256 SWAP1 POP SWAP2 SWAP1 POP JUMP JUMPDEST PUSH1 0x0 DUP2 PUSH1 0x0 SHR SWAP1 POP SWAP2 SWAP1 POP JUMP JUMPDEST PUSH1 0x0 DUP2 SWAP1 POP SWAP2 SWAP1 POP JUMP JUMPDEST PUSH1 0x0 PUSH2 0x1F38 PUSH2 0x1F33 DUP4 PUSH2 0x1F0E JUMP JUMPDEST PUSH2 0x1F1B JUMP JUMPDEST SWAP1 POP SWAP2 SWAP1 POP JUMP JUMPDEST PUSH1 0x0 PUSH2 0x1F4B DUP3 SLOAD PUSH2 0x1F25 JUMP JUMPDEST SWAP1 POP SWAP2 SWAP1 POP JUMP JUMPDEST PUSH1 0x0 PUSH1 0x1 DUP3 ADD SWAP1 POP SWAP2 SWAP1 POP JUMP JUMPDEST PUSH1 0x0 PUSH2 0x1F6A DUP3 PUSH2 0x1EEE JUMP JUMPDEST PUSH2 0x1F74 DUP2 DUP6 PUSH2 0x16F4 JUMP JUMPDEST SWAP4 POP PUSH2 0x1F7F DUP4 PUSH2 0x1EF9 JUMP JUMPDEST DUP1 PUSH1 0x0 JUMPDEST DUP4 DUP2 LT ISZERO PUSH2 0x1FB7 JUMPI PUSH2 0x1F94 DUP3 PUSH2 0x1F3F JUMP JUMPDEST PUSH2 0x1F9E DUP9 DUP3 PUSH2 0x1724 JUMP JUMPDEST SWAP8 POP PUSH2 0x1FA9 DUP4 PUSH2 0x1F52 JUMP JUMPDEST SWAP3 POP POP PUSH1 0x1 DUP2 ADD SWAP1 POP PUSH2 0x1F83 JUMP JUMPDEST POP DUP6 SWAP4 POP POP POP POP SWAP3 SWAP2 POP POP JUMP JUMPDEST PUSH1 0x0 PUSH1 0x20 DUP3 ADD SWAP1 POP DUP2 DUP2 SUB PUSH1 0x0 DUP4 ADD MSTORE PUSH2 0x1FDE DUP2 DUP5 PUSH2 0x1F5F JUMP JUMPDEST SWAP1 POP SWAP3 SWAP2 POP POP JUMP JUMPDEST PUSH32 0x526573756C7473206E6F742063616C63756C61746564207965742E0000000000 PUSH1 0x0 DUP3 ADD MSTORE POP JUMP JUMPDEST PUSH1 0x0 PUSH2 0x201C PUSH1 0x1B DUP4 PUSH2 0x1089 JUMP JUMPDEST SWAP2 POP PUSH2 0x2027 DUP3 PUSH2 0x1FE6 JUMP JUMPDEST PUSH1 0x20 DUP3 ADD SWAP1 POP SWAP2 SWAP1 POP JUMP JUMPDEST PUSH1 0x0 PUSH1 0x20 DUP3 ADD SWAP1 POP DUP2 DUP2 SUB PUSH1 0x0 DUP4 ADD MSTORE PUSH2 0x204B DUP2 PUSH2 0x200F JUMP JUMPDEST SWAP1 POP SWAP2 SWAP1 POP JUMP JUMPDEST PUSH32 0x566F74696E672073657373696F6E206973206E6F74206163746976652E000000 PUSH1 0x0 DUP3 ADD MSTORE POP JUMP JUMPDEST PUSH1 0x0 PUSH2 0x2088 PUSH1 0x1D DUP4 PUSH2 0x1089 JUMP JUMPDEST SWAP2 POP PUSH2 0x2093 DUP3 PUSH2 0x2052 JUMP JUMPDEST PUSH1 0x20 DUP3 ADD SWAP1 POP SWAP2 SWAP1 POP JUMP JUMPDEST PUSH1 0x0 PUSH1 0x20 DUP3 ADD SWAP1 POP DUP2 DUP2 SUB PUSH1 0x0 DUP4 ADD MSTORE PUSH2 0x20B7 DUP2 PUSH2 0x207B JUMP JUMPDEST SWAP1 POP SWAP2 SWAP1 POP JUMP JUMPDEST PUSH32 0x566F74696E672073657373696F6E2068617320656E6465642E00000000000000 PUSH1 0x0 DUP3 ADD MSTORE POP JUMP JUMPDEST PUSH1 0x0 PUSH2 0x20F4 PUSH1 0x19 DUP4 PUSH2 0x1089 JUMP JUMPDEST SWAP2 POP PUSH2 0x20FF DUP3 PUSH2 0x20BE JUMP JUMPDEST PUSH1 0x20 DUP3 ADD SWAP1 POP SWAP2 SWAP1 POP JUMP JUMPDEST PUSH1 0x0 PUSH1 0x20 DUP3 ADD SWAP1 POP DUP2 DUP2 SUB PUSH1 0x0 DUP4 ADD MSTORE PUSH2 0x2123 DUP2 PUSH2 0x20E7 JUMP JUMPDEST SWAP1 POP SWAP2 SWAP1 POP JUMP JUMPDEST PUSH32 0x596F75206861766520616C726561647920766F7465642E000000000000000000 PUSH1 0x0 DUP3 ADD MSTORE POP JUMP JUMPDEST PUSH1 0x0 PUSH2 0x2160 PUSH1 0x17 DUP4 PUSH2 0x1089 JUMP JUMPDEST SWAP2 POP PUSH2 0x216B DUP3 PUSH2 0x212A JUMP JUMPDEST PUSH1 0x20 DUP3 ADD SWAP1 POP SWAP2 SWAP1 POP JUMP JUMPDEST PUSH1 0x0 PUSH1 0x20 DUP3 ADD SWAP1 POP DUP2 DUP2 SUB PUSH1 0x0 DUP4 ADD MSTORE PUSH2 0x218F DUP2 PUSH2 0x2153 JUMP JUMPDEST SWAP1 POP SWAP2 SWAP1 POP JUMP JUMPDEST PUSH32 0x496E76616C69642063616E64696461746520696E6465782E0000000000000000 PUSH1 0x0 DUP3 ADD MSTORE POP JUMP JUMPDEST PUSH1 0x0 PUSH2 0x21CC PUSH1 0x18 DUP4 PUSH2 0x1089 JUMP JUMPDEST SWAP2 POP PUSH2 0x21D7 DUP3 PUSH2 0x2196 JUMP JUMPDEST PUSH1 0x20 DUP3 ADD SWAP1 POP SWAP2 SWAP1 POP JUMP JUMPDEST PUSH1 0x0 PUSH1 0x20 DUP3 ADD SWAP1 POP DUP2 DUP2 SUB PUSH1 0x0 DUP4 ADD MSTORE PUSH2 0x21FB DUP2 PUSH2 0x21BF JUMP JUMPDEST SWAP1 POP SWAP2 SWAP1 POP JUMP INVALID LOG2 PUSH5 0x6970667358 0x22 SLT KECCAK256 0xE7 0x2D POP SGT PC DIV PUSH20 0x19FA64DF32995777C368182DE14AE724B1E8C9AA 0xD7 PUSH22 0xDF083764736F6C634300081A00330000000000000000 "
        },
        "methodIdentifiers": {
          "calculateResults(uint256)": "6458c9ce",
          "createVotingSession(string,string[],uint256)": "3e5c08b2",
          "getSessionInfo(uint256)": "9e10acf0",
          "getTally(uint256)": "eb0772c9",
          "getWinners(uint256)": "6b1426a4",
          "hasVoted(uint256,address)": "43859632",
          "vote(uint256,uint256)": "b384abef",
          "votingSessionCount()": "b6c5947e",
          "votingSessions(uint256)": "1186eb7c"
        }
      }
    }
  }
}