{
  "_format": "hh-sol-artifact-1",
  "contractName": "VBTest",
  "sourceName": "contracts/VotingBlock.sol",
  "abi": [
    {
      "anonymous": false,
      "inputs": [
        {
          "indexed": true,
          "internalType": "uint256",
          "name": "sessionId",
          "type": "uint256"
        },
        {
          "indexed": false,
          "internalType": "uint256[]",
          "name": "tally",
          "type": "uint256[]"
        }
      ],
      "name": "ResultsCalculated",
      "type": "event"
    },
    {
      "anonymous": false,
      "inputs": [
        {
          "indexed": true,
          "internalType": "uint256",
          "name": "sessionId",
          "type": "uint256"
        },
        {
          "indexed": true,
          "internalType": "address",
          "name": "voter",
          "type": "address"
        },
        {
          "indexed": true,
          "internalType": "uint256",
          "name": "candidateIndex",
          "type": "uint256"
        }
      ],
      "name": "VoteCast",
      "type": "event"
    },
    {
      "anonymous": false,
      "inputs": [
        {
          "indexed": true,
          "internalType": "uint256",
          "name": "sessionId",
          "type": "uint256"
        },
        {
          "indexed": false,
          "internalType": "string",
          "name": "title",
          "type": "string"
        },
        {
          "indexed": false,
          "internalType": "string[]",
          "name": "candidates",
          "type": "string[]"
        },
        {
          "indexed": false,
          "internalType": "uint256",
          "name": "startTimestamp",
          "type": "uint256"
        },
        {
          "indexed": false,
          "internalType": "uint256",
          "name": "endTimestamp",
          "type": "uint256"
        }
      ],
      "name": "VotingSessionCreated",
      "type": "event"
    },
    {
      "inputs": [
        {
          "internalType": "uint256",
          "name": "_sessionId",
          "type": "uint256"
        }
      ],
      "name": "calculateResults",
      "outputs": [],
      "stateMutability": "nonpayable",
      "type": "function"
    },
    {
      "inputs": [
        {
          "internalType": "string",
          "name": "_title",
          "type": "string"
        },
        {
          "internalType": "string[]",
          "name": "_candidates",
          "type": "string[]"
        },
        {
          "internalType": "uint256",
          "name": "_durationInSeconds",
          "type": "uint256"
        }
      ],
      "name": "createVotingSession",
      "outputs": [
        {
          "internalType": "uint256",
          "name": "sessionId",
          "type": "uint256"
        }
      ],
      "stateMutability": "nonpayable",
      "type": "function"
    },
    {
      "inputs": [
        {
          "internalType": "uint256",
          "name": "_sessionId",
          "type": "uint256"
        }
      ],
      "name": "getSessionInfo",
      "outputs": [
        {
          "internalType": "string",
          "name": "title",
          "type": "string"
        },
        {
          "internalType": "string[]",
          "name": "candidates",
          "type": "string[]"
        },
        {
          "internalType": "bool",
          "name": "isActive",
          "type": "bool"
        },
        {
          "internalType": "bool",
          "name": "resultsCalculated",
          "type": "bool"
        },
        {
          "internalType": "uint256",
          "name": "startTimestamp",
          "type": "uint256"
        },
        {
          "internalType": "uint256",
          "name": "endTimestamp",
          "type": "uint256"
        }
      ],
      "stateMutability": "view",
      "type": "function"
    },
    {
      "inputs": [
        {
          "internalType": "uint256",
          "name": "_sessionId",
          "type": "uint256"
        }
      ],
      "name": "getTally",
      "outputs": [
        {
          "internalType": "uint256[]",
          "name": "tally",
          "type": "uint256[]"
        }
      ],
      "stateMutability": "view",
      "type": "function"
    },
    {
      "inputs": [
        {
          "internalType": "uint256",
          "name": "_sessionId",
          "type": "uint256"
        }
      ],
      "name": "getWinners",
      "outputs": [
        {
          "internalType": "string[]",
          "name": "winners",
          "type": "string[]"
        }
      ],
      "stateMutability": "view",
      "type": "function"
    },
    {
      "inputs": [
        {
          "internalType": "uint256",
          "name": "_sessionId",
          "type": "uint256"
        },
        {
          "internalType": "address",
          "name": "_voter",
          "type": "address"
        }
      ],
      "name": "hasVoted",
      "outputs": [
        {
          "internalType": "bool",
          "name": "",
          "type": "bool"
        }
      ],
      "stateMutability": "view",
      "type": "function"
    },
    {
      "inputs": [
        {
          "internalType": "uint256",
          "name": "_sessionId",
          "type": "uint256"
        },
        {
          "internalType": "uint256",
          "name": "_candidateIndex",
          "type": "uint256"
        }
      ],
      "name": "vote",
      "outputs": [],
      "stateMutability": "nonpayable",
      "type": "function"
    },
    {
      "inputs": [],
      "name": "votingSessionCount",
      "outputs": [
        {
          "internalType": "uint256",
          "name": "",
          "type": "uint256"
        }
      ],
      "stateMutability": "view",
      "type": "function"
    },
    {
      "inputs": [
        {
          "internalType": "uint256",
          "name": "",
          "type": "uint256"
        }
      ],
      "name": "votingSessions",
      "outputs": [
        {
          "internalType": "string",
          "name": "title",
          "type": "string"
        },
        {
          "internalType": "bool",
          "name": "isActive",
          "type": "bool"
        },
        {
          "internalType": "uint256",
          "name": "startTimestamp",
          "type": "uint256"
        },
        {
          "internalType": "uint256",
          "name": "endTimestamp",
          "type": "uint256"
        },
        {
          "internalType": "bool",
          "name": "resultsCalculated",
          "type": "bool"
        }
      ],
      "stateMutability": "view",
      "type": "function"
    }
  ],
  "bytecode": "0x6080604052348015600f57600080fd5b506122388061001f6000396000f3fe608060405234801561001057600080fd5b50600436106100935760003560e01c80636b1426a4116100665780636b1426a4146101485780639e10acf014610178578063b384abef146101ad578063b6c5947e146101c9578063eb0772c9146101e757610093565b80631186eb7c146100985780633e5c08b2146100cc57806343859632146100fc5780636458c9ce1461012c575b600080fd5b6100b260048036038101906100ad9190611051565b610217565b6040516100c3959493929190611138565b60405180910390f35b6100e660048036038101906100e191906113ad565b6102ef565b6040516100f39190611438565b60405180910390f35b610116600480360381019061011191906114b1565b610587565b60405161012391906114f1565b60405180910390f35b61014660048036038101906101419190611051565b6105f1565b005b610162600480360381019061015d9190611051565b6107ad565b60405161016f9190611618565b60405180910390f35b610192600480360381019061018d9190611051565b610a3b565b6040516101a49695949392919061163a565b60405180910390f35b6101c760048036038101906101c291906116a9565b610c05565b005b6101d1610e67565b6040516101de9190611438565b60405180910390f35b61020160048036038101906101fc9190611051565b610e6d565b60405161020e91906117a7565b60405180910390f35b600060205280600052604060002060009150905080600001805461023a906117f8565b80601f0160208091040260200160405190810160405280929190818152602001828054610266906117f8565b80156102b35780601f10610288576101008083540402835291602001916102b3565b820191906000526020600020905b81548152906001019060200180831161029657829003601f168201915b5050505050908060020160009054906101000a900460ff16908060030154908060040154908060050160009054906101000a900460ff16905085565b60006001835111610335576040517f08c379a000000000000000000000000000000000000000000000000000000000815260040161032c90611875565b60405180910390fd5b60008211610378576040517f08c379a000000000000000000000000000000000000000000000000000000000815260040161036f90611907565b60405180910390fd5b60005b835181101561043e5760006001826103939190611956565b90505b8451811015610430578481815181106103b2576103b161198a565b5b6020026020010151805190602001208583815181106103d4576103d361198a565b5b60200260200101518051906020012003610423576040517f08c379a000000000000000000000000000000000000000000000000000000000815260040161041a90611a05565b60405180910390fd5b8080600101915050610396565b50808060010191505061037b565b5060015490506001600081548092919061045790611a25565b919050555060008060008381526020019081526020016000209050848160000190816104839190611c19565b508381600101908051906020019061049c929190610ee0565b5060018160020160006101000a81548160ff02191690831515021790555042816003018190555082426104cf9190611956565b8160040181905550835167ffffffffffffffff8111156104f2576104f161119c565b5b6040519080825280602002602001820160405280156105205781602001602082028036833780820191505090505b50816006019080519060200190610538929190610f39565b50817f8c04667f69bbb5ebfd8bef90c600643f394c258acfca4a58fb8b466ba2656ef48686846003015485600401546040516105779493929190611ceb565b60405180910390a2509392505050565b600080600084815260200190815260200160002060070160008373ffffffffffffffffffffffffffffffffffffffff1673ffffffffffffffffffffffffffffffffffffffff16815260200190815260200160002060009054906101000a900460ff16905092915050565b6001548110610635576040517f08c379a000000000000000000000000000000000000000000000000000000000815260040161062c90611d8a565b60405180910390fd5b600080600083815260200190815260200160002090508060020160009054906101000a900460ff1661069c576040517f08c379a000000000000000000000000000000000000000000000000000000000815260040161069390611df6565b60405180910390fd5b806004015442116106e2576040517f08c379a00000000000000000000000000000000000000000000000000000000081526004016106d990611e62565b60405180910390fd5b8060050160009054906101000a900460ff1615610734576040517f08c379a000000000000000000000000000000000000000000000000000000000815260040161072b90611ece565b60405180910390fd5b60018160050160006101000a81548160ff02191690831515021790555060008160020160006101000a81548160ff021916908315150217905550817ff87d7a2faf29c94988a5ddb321beced1fc595a1016a5c11ca097fcda9cd83e70826006016040516107a19190611fc4565b60405180910390a25050565b6060600080600084815260200190815260200160002090508060050160009054906101000a900460ff16610816576040517f08c379a000000000000000000000000000000000000000000000000000000000815260040161080d90612032565b60405180910390fd5b60008060005b83600601805490508110156108c357828460060182815481106108425761084161198a565b5b9060005260206000200154111561087f578360060181815481106108695761086861198a565b5b90600052602060002001549250600191506108b6565b828460060182815481106108965761089561198a565b5b9060005260206000200154036108b55781806108b190611a25565b9250505b5b808060010191505061081c565b508067ffffffffffffffff8111156108de576108dd61119c565b5b60405190808252806020026020018201604052801561091157816020015b60608152602001906001900390816108fc5790505b5093506000805b8460060180549050811015610a31578385600601828154811061093e5761093d61198a565b5b906000526020600020015403610a24578460010181815481106109645761096361198a565b5b906000526020600020018054610979906117f8565b80601f01602080910402602001604051908101604052809291908181526020018280546109a5906117f8565b80156109f25780601f106109c7576101008083540402835291602001916109f2565b820191906000526020600020905b8154815290600101906020018083116109d557829003601f168201915b5050505050868381518110610a0a57610a0961198a565b5b60200260200101819052508180610a2090611a25565b9250505b8080600101915050610918565b5050505050919050565b6060806000806000806000806000898152602001908152602001600020905080600001816001018260020160009054906101000a900460ff168360050160009054906101000a900460ff1684600301548560040154858054610a9c906117f8565b80601f0160208091040260200160405190810160405280929190818152602001828054610ac8906117f8565b8015610b155780601f10610aea57610100808354040283529160200191610b15565b820191906000526020600020905b815481529060010190602001808311610af857829003601f168201915b5050505050955084805480602002602001604051908101604052809291908181526020016000905b82821015610be9578382906000526020600020018054610b5c906117f8565b80601f0160208091040260200160405190810160405280929190818152602001828054610b88906117f8565b8015610bd55780601f10610baa57610100808354040283529160200191610bd5565b820191906000526020600020905b815481529060010190602001808311610bb857829003601f168201915b505050505081526020019060010190610b3d565b5050505094509650965096509650965096505091939550919395565b600080600084815260200190815260200160002090508060020160009054906101000a900460ff16610c6c576040517f08c379a0000000000000000000000000000000000000000000000000000000008152600401610c639061209e565b60405180910390fd5b8060040154421115610cb3576040517f08c379a0000000000000000000000000000000000000000000000000000000008152600401610caa9061210a565b60405180910390fd5b8060070160003373ffffffffffffffffffffffffffffffffffffffff1673ffffffffffffffffffffffffffffffffffffffff16815260200190815260200160002060009054906101000a900460ff1615610d42576040517f08c379a0000000000000000000000000000000000000000000000000000000008152600401610d3990612176565b60405180910390fd5b80600101805490508210610d8b576040517f08c379a0000000000000000000000000000000000000000000000000000000008152600401610d82906121e2565b60405180910390fd5b60018160070160003373ffffffffffffffffffffffffffffffffffffffff1673ffffffffffffffffffffffffffffffffffffffff16815260200190815260200160002060006101000a81548160ff0219169083151502179055506001816006018381548110610dfd57610dfc61198a565b5b906000526020600020016000828254610e169190611956565b92505081905550813373ffffffffffffffffffffffffffffffffffffffff16847f2acce567deca3aabf56327adbb4524bd5318936eaefa69e3a5208ffda0cfec0960405160405180910390a4505050565b60015481565b60606000806000848152602001908152602001600020905080600601805480602002602001604051908101604052809291908181526020018280548015610ed357602002820191906000526020600020905b815481526020019060010190808311610ebf575b5050505050915050919050565b828054828255906000526020600020908101928215610f28579160200282015b82811115610f27578251829081610f179190611c19565b5091602001919060010190610f00565b5b509050610f359190610f86565b5090565b828054828255906000526020600020908101928215610f75579160200282015b82811115610f74578251825591602001919060010190610f59565b5b509050610f829190610faa565b5090565b5b80821115610fa65760008181610f9d9190610fc7565b50600101610f87565b5090565b5b80821115610fc3576000816000905550600101610fab565b5090565b508054610fd3906117f8565b6000825580601f10610fe55750611004565b601f0160209004906000526020600020908101906110039190610faa565b5b50565b6000604051905090565b600080fd5b600080fd5b6000819050919050565b61102e8161101b565b811461103957600080fd5b50565b60008135905061104b81611025565b92915050565b60006020828403121561106757611066611011565b5b60006110758482850161103c565b91505092915050565b600081519050919050565b600082825260208201905092915050565b60005b838110156110b857808201518184015260208101905061109d565b60008484015250505050565b6000601f19601f8301169050919050565b60006110e08261107e565b6110ea8185611089565b93506110fa81856020860161109a565b611103816110c4565b840191505092915050565b60008115159050919050565b6111238161110e565b82525050565b6111328161101b565b82525050565b600060a082019050818103600083015261115281886110d5565b9050611161602083018761111a565b61116e6040830186611129565b61117b6060830185611129565b611188608083018461111a565b9695505050505050565b600080fd5b600080fd5b7f4e487b7100000000000000000000000000000000000000000000000000000000600052604160045260246000fd5b6111d4826110c4565b810181811067ffffffffffffffff821117156111f3576111f261119c565b5b80604052505050565b6000611206611007565b905061121282826111cb565b919050565b600067ffffffffffffffff8211156112325761123161119c565b5b61123b826110c4565b9050602081019050919050565b82818337600083830152505050565b600061126a61126584611217565b6111fc565b90508281526020810184848401111561128657611285611197565b5b611291848285611248565b509392505050565b600082601f8301126112ae576112ad611192565b5b81356112be848260208601611257565b91505092915050565b600067ffffffffffffffff8211156112e2576112e161119c565b5b602082029050602081019050919050565b600080fd5b600061130b611306846112c7565b6111fc565b9050808382526020820190506020840283018581111561132e5761132d6112f3565b5b835b8181101561137557803567ffffffffffffffff81111561135357611352611192565b5b8086016113608982611299565b85526020850194505050602081019050611330565b5050509392505050565b600082601f83011261139457611393611192565b5b81356113a48482602086016112f8565b91505092915050565b6000806000606084860312156113c6576113c5611011565b5b600084013567ffffffffffffffff8111156113e4576113e3611016565b5b6113f086828701611299565b935050602084013567ffffffffffffffff81111561141157611410611016565b5b61141d8682870161137f565b925050604061142e8682870161103c565b9150509250925092565b600060208201905061144d6000830184611129565b92915050565b600073ffffffffffffffffffffffffffffffffffffffff82169050919050565b600061147e82611453565b9050919050565b61148e81611473565b811461149957600080fd5b50565b6000813590506114ab81611485565b92915050565b600080604083850312156114c8576114c7611011565b5b60006114d68582860161103c565b92505060206114e78582860161149c565b9150509250929050565b6000602082019050611506600083018461111a565b92915050565b600081519050919050565b600082825260208201905092915050565b6000819050602082019050919050565b600082825260208201905092915050565b60006115548261107e565b61155e8185611538565b935061156e81856020860161109a565b611577816110c4565b840191505092915050565b600061158e8383611549565b905092915050565b6000602082019050919050565b60006115ae8261150c565b6115b88185611517565b9350836020820285016115ca85611528565b8060005b8581101561160657848403895281516115e78582611582565b94506115f283611596565b925060208a019950506001810190506115ce565b50829750879550505050505092915050565b6000602082019050818103600083015261163281846115a3565b905092915050565b600060c082019050818103600083015261165481896110d5565b9050818103602083015261166881886115a3565b9050611677604083018761111a565b611684606083018661111a565b6116916080830185611129565b61169e60a0830184611129565b979650505050505050565b600080604083850312156116c0576116bf611011565b5b60006116ce8582860161103c565b92505060206116df8582860161103c565b9150509250929050565b600081519050919050565b600082825260208201905092915050565b6000819050602082019050919050565b61171e8161101b565b82525050565b60006117308383611715565b60208301905092915050565b6000602082019050919050565b6000611754826116e9565b61175e81856116f4565b935061176983611705565b8060005b8381101561179a5781516117818882611724565b975061178c8361173c565b92505060018101905061176d565b5085935050505092915050565b600060208201905081810360008301526117c18184611749565b905092915050565b7f4e487b7100000000000000000000000000000000000000000000000000000000600052602260045260246000fd5b6000600282049050600182168061181057607f821691505b602082108103611823576118226117c9565b5b50919050565b7f4e656564206174206c656173742074776f2063616e646964617465732e000000600082015250565b600061185f601d83611089565b915061186a82611829565b602082019050919050565b6000602082019050818103600083015261188e81611852565b9050919050565b7f4475726174696f6e206d7573742062652067726561746572207468616e207a6560008201527f726f2e0000000000000000000000000000000000000000000000000000000000602082015250565b60006118f1602383611089565b91506118fc82611895565b604082019050919050565b60006020820190508181036000830152611920816118e4565b9050919050565b7f4e487b7100000000000000000000000000000000000000000000000000000000600052601160045260246000fd5b60006119618261101b565b915061196c8361101b565b925082820190508082111561198457611983611927565b5b92915050565b7f4e487b7100000000000000000000000000000000000000000000000000000000600052603260045260246000fd5b7f4475706c69636174652063616e64696461746520666f756e642e000000000000600082015250565b60006119ef601a83611089565b91506119fa826119b9565b602082019050919050565b60006020820190508181036000830152611a1e816119e2565b9050919050565b6000611a308261101b565b91507fffffffffffffffffffffffffffffffffffffffffffffffffffffffffffffffff8203611a6257611a61611927565b5b600182019050919050565b60008190508160005260206000209050919050565b60006020601f8301049050919050565b600082821b905092915050565b600060088302611acf7fffffffffffffffffffffffffffffffffffffffffffffffffffffffffffffffff82611a92565b611ad98683611a92565b95508019841693508086168417925050509392505050565b6000819050919050565b6000611b16611b11611b0c8461101b565b611af1565b61101b565b9050919050565b6000819050919050565b611b3083611afb565b611b44611b3c82611b1d565b848454611a9f565b825550505050565b600090565b611b59611b4c565b611b64818484611b27565b505050565b5b81811015611b8857611b7d600082611b51565b600181019050611b6a565b5050565b601f821115611bcd57611b9e81611a6d565b611ba784611a82565b81016020851015611bb6578190505b611bca611bc285611a82565b830182611b69565b50505b505050565b600082821c905092915050565b6000611bf060001984600802611bd2565b1980831691505092915050565b6000611c098383611bdf565b9150826002028217905092915050565b611c228261107e565b67ffffffffffffffff811115611c3b57611c3a61119c565b5b611c4582546117f8565b611c50828285611b8c565b600060209050601f831160018114611c835760008415611c71578287015190505b611c7b8582611bfd565b865550611ce3565b601f198416611c9186611a6d565b60005b82811015611cb957848901518255600182019150602085019450602081019050611c94565b86831015611cd65784890151611cd2601f891682611bdf565b8355505b6001600288020188555050505b505050505050565b60006080820190508181036000830152611d0581876110d5565b90508181036020830152611d1981866115a3565b9050611d286040830185611129565b611d356060830184611129565b95945050505050565b7f496e76616c69642073657373696f6e2049442e00000000000000000000000000600082015250565b6000611d74601383611089565b9150611d7f82611d3e565b602082019050919050565b60006020820190508181036000830152611da381611d67565b9050919050565b7f53657373696f6e20616c72656164792066696e616c697a65642e000000000000600082015250565b6000611de0601a83611089565b9150611deb82611daa565b602082019050919050565b60006020820190508181036000830152611e0f81611dd3565b9050919050565b7f566f74696e6720706572696f64206973207374696c6c206163746976652e0000600082015250565b6000611e4c601e83611089565b9150611e5782611e16565b602082019050919050565b60006020820190508181036000830152611e7b81611e3f565b9050919050565b7f526573756c747320616c72656164792063616c63756c617465642e0000000000600082015250565b6000611eb8601b83611089565b9150611ec382611e82565b602082019050919050565b60006020820190508181036000830152611ee781611eab565b9050919050565b600081549050919050565b60008190508160005260206000209050919050565b60008160001c9050919050565b6000819050919050565b6000611f38611f3383611f0e565b611f1b565b9050919050565b6000611f4b8254611f25565b9050919050565b6000600182019050919050565b6000611f6a82611eee565b611f7481856116f4565b9350611f7f83611ef9565b8060005b83811015611fb757611f9482611f3f565b611f9e8882611724565b9750611fa983611f52565b925050600181019050611f83565b5085935050505092915050565b60006020820190508181036000830152611fde8184611f5f565b905092915050565b7f526573756c7473206e6f742063616c63756c61746564207965742e0000000000600082015250565b600061201c601b83611089565b915061202782611fe6565b602082019050919050565b6000602082019050818103600083015261204b8161200f565b9050919050565b7f566f74696e672073657373696f6e206973206e6f74206163746976652e000000600082015250565b6000612088601d83611089565b915061209382612052565b602082019050919050565b600060208201905081810360008301526120b78161207b565b9050919050565b7f566f74696e672073657373696f6e2068617320656e6465642e00000000000000600082015250565b60006120f4601983611089565b91506120ff826120be565b602082019050919050565b60006020820190508181036000830152612123816120e7565b9050919050565b7f596f75206861766520616c726561647920766f7465642e000000000000000000600082015250565b6000612160601783611089565b915061216b8261212a565b602082019050919050565b6000602082019050818103600083015261218f81612153565b9050919050565b7f496e76616c69642063616e64696461746520696e6465782e0000000000000000600082015250565b60006121cc601883611089565b91506121d782612196565b602082019050919050565b600060208201905081810360008301526121fb816121bf565b905091905056fea2646970667358221220e72d501358047319fa64df32995777c368182de14ae724b1e8c9aad775df083764736f6c634300081a0033",
  "linkReferences": {},
  "deployedLinkReferences": {}
}